:020000042002D8
:1000000000200420A95D0220AD1F0220F15D022026
:10001000F35D0220F35D0220F35D0220F35D022018
:10002000000000000000000000000000F35D02205E
:10003000F35D022000000000F35D0220F35D02206A
:10004000F35D0220F35D0220F35D0220F35D0220E8
:10005000F35D0220F35D0220F35D0220F35D0220D8
:10006000F35D0220F35D0220F35D0220F35D0220C8
:10007000F35D0220F35D0220F35D0220F35D0220B8
:10008000F35D0220F35D0220F35D0220F35D0220A8
:10009000F35D0220F35D0220F35D0220F35D022098
:1000A000F35D0220F35D0220F35D0220F35D022088
:1000B000F35D0220F35D0220F35D0220F35D022078
:1000C000F35D0220F35D0220F35D0220F35D022068
:1000D000F35D0220F35D0220F35D0220F35D022058
:1000E000F35D0220F35D0220F35D0220F35D022048
:1000F000F35D0220F35D0220F35D0220F35D022038
:10010000F35D0220F35D0220F35D0220F35D022027
:10011000F35D0220F35D0220F35D0220F35D022017
:10012000F35D0220F35D0220F35D0220F35D022007
:10013000F35D0220F35D0220F35D0220F35D0220F7
:10014000F35D0220F35D0220F35D0220F35D0220E7
:10015000F35D0220F35D0220F35D0220F35D0220D7
:10016000F35D0220F35D0220F35D0220F35D0220C7
:10017000F35D0220F35D0220F35D0220F35D0220B7
:10018000F35D0220F35D0220F35D0220F35D0220A7
:10019000F35D0220F35D0220F35D0220F35D022097
:1001A000F35D0220F35D0220F35D0220F35D022087
:1001B000F35D0220F35D0220F35D0220F35D022077
:1001C000F35D0220F35D0220F35D022000000000D9
:1001D000000000000000000000000000000000001F
:1001E000000000000000000000000000000000000F
:1001F00000000000000000000000000000000000FF
:0402000000000000FA
:100208000348044B834202D0034B03B1184770479D
:10021800B4490420B449042000000000064B0749F3
:10022800C91A891048BF0131491003D0044B0BB1DA
:1002380001481847704700BFB4490420B449042056
:100248000000000010B5064C237843B9FFF7D8FF2B
:10025800044B13B10448AFF300800123237010BD91
:10026800B449042000000000CCC2022008B5054BA8
:100278001BB105490548AFF30080BDE80840FFF70A
:10028800CDBF00BF00000000B8490420CCC2022046
:10029800002310B5934200DB10BDC4692406FCD5C9
:1002A800CC5C01338462F5E707B501228DF80700BD
:1002B8000DF107010E48FFF7EBFF0E4BD3F888202E
:1002C80002F00302032A02F101010FD0D3F88820BB
:1002D80022F00302C3F88820D3F888200A43C3F821
:1002E80088200CF037F803B05DF804FBFEE700BF88
:1002F8000040085000A00C503422014BDA607047CF
:10030800004009507047704710B5012300220321AF
:10031800022004F033FB0123002219460A2004F0CE
:100328002DFB012310220921082004F027FB0123BB
:1003380010220A21032004F021FBBDE8104001230C
:1003480000220C210B2004F019BB10B50446012132
:10035800052004F0BBFC0121062004F0B7FC0121B4
:10036800072004F0B3FC0121092004F0AFFC0121AF
:100378000C2004F0ABFC01210D2004F0A7FC0121A6
:1003880054B1084604F0A2FC012330220B210420BA
:10039800BDE8104004F0F2BA042004F097FC0123F1
:1003A80030220B211846F3E708B500220123032168
:1003B800052004F0E3FA0123002219460A2004F07C
:1003C800DDFA0123102209210C2004F0D7FA0123B9
:1003D80010220A21032004F0D1FA012330220B2134
:1003E800184604F0CBFA012330220C21092004F02E
:1003F800C5FA0121022004F069FC0121042004F05F
:1004080065FC0121062004F061FC0121072004F0AD
:100418005DFC0121082004F059FC01210B2004F0A7
:1004280055FCBDE8084001210D2004F04FBC10B573
:100438000123002219211E2004F0A0FA0123002222
:100448001B211A2004F09AFA0123102221211D20D1
:1004580004F094FA0123102222211B2004F08EFAC2
:100468000123302223211C2004F088FABDE8104023
:100478000123302224211F2004F080BA10B5012363
:1004880030224FF4DA711D2004F078FA142001F0BC
:1004980066FD012300224FF4D9711C2004F06EFA86
:1004A8000123302240F2B5111E2004F067FA01231F
:1004B80030224FF4DB711F2004F060FA0123302250
:1004C80040F2B7111A2004F059FABDE81040012390
:1004D80030224FF4DC711B2004F050BA10B50D4BDC
:1004E8005B68C3F30223072B0CD1002401340121DC
:1004F800204604F0EBFB0D2CF8D10020BDE810409D
:100508000BF0E8BE1BB1012BF7D1022010BD012072
:10051800FCE700BF00B00050704708B51022012367
:100528000921022004F02AFA012310220A210320BB
:1005380004F024FA012310220B21042004F01EFAEF
:10054800012310220C21052004F018FA012310229F
:100558000D21062004F012FA012310220E21072093
:1005680004F00CFA012310220F21082004F006FAE7
:10057800102201231146092004F000FA0123102259
:1005880006210A2004F0FAF90123002219460B205B
:1005980004F0F4F90123002203210C2004F0EEF901
:1005A8000121084604F092FBBDE8084001210D2016
:1005B80004F08CBB10B50123044610220921022047
:1005C80004F0DCF9012310220A21032004F0D6F9F3
:1005D800012310220B21042004F0D0F9012310225A
:1005E8000C21052004F0CAF9012310220D2109204D
:1005F80004F0C4F9012310220E210A2004F0BEF9E8
:10060800012310220F210B2004F0B8F91022012336
:1006180011460C2004F0B2F90123002219460820E3
:1006280004F0ACF9012300220321062004F0A6F906
:10063800022C13D0042C25D0012C2CD106212346C2
:1006480010220D2004F09AF92146204604F03EFBC2
:10065800BDE810400121072004F038BB0123102217
:100668000421184604F08AF90123102205210D20DF
:1006780004F084F92146BDE8104001230022072038
:1006880004F07CB90621012300220D2004F076F93C
:1006980001210846DAE710BD08B5012300221946F2
:1006A8000A2004F06BF9012300220321092004F039
:1006B80065F9012310220921062004F05FF90123BE
:1006C80010220A21082004F059F9012330220B21B5
:1006D800072004F053F9012330220C210B2004F0E9
:1006E8004DF90121084604F0F1FA0121022004F035
:1006F800EDFA0121032004F0E9FA0121042004F0B5
:10070800E5FA0121052004F0E1FA01210C2004F0AA
:10071800DDFABDE8084001210D2004F0D7BA022116
:10072800042004F005BC00002DE9F04100248AB043
:1007380005463022214663480AF080F8624BA81E1D
:1007480005934FF0805307930323069409930428D5
:1007580004D8DFE800F06462045D6000FEE705236A
:1007680009930423099D0893032D62D109F0ACFD78
:1007780005A90246534803F09DFE2A460821514820
:1007880003F08AFD4F4803F095FA504B984248D938
:1007980003F1A46303F58343984244D903F1377303
:1007A80003F5D843984240D9494B98423FD9494B21
:1007B800984298BF0724002607254FF003086700D2
:1007C800FFB27A1E334652B229463E48CDE9025559
:1007D800CDE9006802F03EF931463A4802F02FF9B7
:1007E800621E334652B229463648CDE90255CDE954
:1007F800006802F058F98021324802F048F923468F
:100808003A4601212F4803F06BFD0AB0BDE8F0819C
:1008180002230993A6E7062309930823A2E71023D6
:10082800A0E72C46C7E70424C5E70524C3E7062448
:10083800C1E7052D0DD109F047FD05A9024621485C
:1008480003F0B4FE1F4803F0BDFD1E4803F0D5FDBC
:10085800DBE7062D0DD109F037FD05A90246194839
:1008680003F070FF174803F0A7FF164803F0B6FF20
:10087800CBE709F029FD00250324012702260246BB
:1008880005A9104803F0B2FC2B4606222146CDE903
:100898000247CDE900560B4802F0DCF8EB21094885
:1008A80002F0CDF821462B462A46CDE90247CDE98C
:1008B8000056044802F0F7F83821024802F0E7F839
:1008C800A3E700BFD0490420001004500129DE0727
:1008D80001EBC9130184D71710B5154B5C68C4F335
:1008E8000224A31E042B21D8DFE803F01D1B1503E7
:1008F8001900FFF7D1FE0122002011460BF0F0FC91
:100908000120FFF70CFF022009F0EAFC2046BDE8B1
:100918001040FFF709BF0220FFF74CFEEBE7042069
:10092800FAE70120F8E7FFF7F8FDE4E710BD00BF9C
:1009380000B00050154B70B503F14406B0F1905F5C
:1009480038BF1E4633690C46834201D9012070BD69
:1009580072691A448242F9D3C01AC0F30B037BB9F7
:10096800C1F30B037BB94518291B0CB92046EEE7E8
:10097800304603F053F90028E8D1A4F58054F3E792
:100988004FF0FF30E3E76FF00100E0E7206F04204D
:100998002DE9F843204B0F4603F14408B0F1905F6E
:1009A80038BF9846D8F810501646854202D900201C
:1009B800BDE8F883D8F814202A448242F7D3451BAF
:1009C80015F0FF0412D0C4F58074B44228BF344631
:1009D8000A4623462946404603F03BF88442E6D1BE
:1009E80025442744341B1CB93046E1E73446FAE76E
:1009F800B4F5807FA14628BF4FF480793A464B462C
:100A08002946404603F025F88145D0D14D444F444E
:100A1800A4EB0904E7E700BF206F04200B4610B5DC
:100A280014460146184609F023FF204610BD000071
:100A38002DE9F04F00260F461546B046194BDFF852
:100A480068A01B68DFF864B01B690446834285B060
:100A580098BFC41A1DB9304605B0BDE8F08FDAF862
:100A68000010DBF80000A942B0FBF1FC894601F157
:100A7800FF3228BFA946B4FBF1F10CF1FF3CB4FBEF
:100A8800F0F0CDE90188CDF80090BB1922400CEABE
:100A9800010104F063FE4845DDD106442D1A0444E3
:100AA800D8E700BF086D0420042C0420002C042083
:100AB8002DE9F84300F11E460D4614461746B04688
:100AC80002EB0109B7F5007FA9EB070118D2C4F3BF
:100AD800080797B124F4FF7020F001004FF400726A
:100AE8000C49304401F0B8F824F4FF7020F00100FC
:100AF8003A460849284409F0BBFE2046BDE8F88379
:100B080040464FF4007201F0A7F8A7F5007708F502
:100B18000078D7E7046B04202DE9F84300F11E465E
:100B28000D4614461746B04602EB0109B7F5007F9B
:100B3800A9EB070118D2C4F3080797B124F4FF7092
:100B480020F001004FF400720C49304400F06EFEB2
:100B580024F4FF7020F001003A460849284409F0BF
:100B680087FE2046BDE8F88340464FF4007200F047
:100B78005DFEA7F5007708F50078D7E7046B042039
:100B88002DE9F04715460E4628491A46DDE9083C86
:100B98000F68E9188F42DDF828E000D2FEE7244903
:100BA80007F18009B9F1000F096815DD214C646D62
:100BB80004F01F08C844BFF34F8FDFF880A0A0449B
:100BC800CAF85C422034A8EB0409B9F1000FF7DC3D
:100BD800BFF34F8FBFF36F8FC4071BD5154C94F825
:100BE8006B80B8F1000F15D0646D04F5805804F0DF
:100BF8001F0404F50864BFF34F8FDFF84090203CD2
:100C0800002CC9F85C8208F12008F8DCBFF34F8F8C
:100C1800BFF36F8F07FB0655CDE908CE01FB0051E6
:100C2800BDE8F047044802F032BE00BF042C04209F
:100C3800002C0420206F0420646F042000ED00E0E5
:100C480010B41C4B014618688030002812DD1A4B7E
:100C58005B6D03F01F020244BFF34F8F174C1A4419
:100C6800C4F85C322033D01A0028F9DCBFF34F8F68
:100C7800BFF36F8FCB0718D50F4B93F86B20A2B13A
:100C88005B6D03F5805203F01F0303F50863BFF3A0
:100C98004F8F0A48203B002BC0F85C2202F120024B
:100CA800F8DCBFF34F8FBFF36F8F05485DF8044B37
:100CB80002F0AEBE042C0420206F042000ED00E0FA
:100CC800646F04202DE9F0478CB001F083FE012108
:100CD800002004F02DF901210C2004F029F901204D
:100CE80004F024F89C4F902004F084FA002001F0CE
:100CF80036F93B68994D013B052B00F21D81DFE871
:100D080013F00600060078007800F8000C019448FB
:100D180004F0D6F8934C062009F0E2FA07AE022157
:100D2800042004F005F90FCC0FC654F8043B3360D7
:100D380003AE94E80F0086E80F0001238A4C84F87C
:100D48003530002308933B68012B4DD1FFF7DCFABF
:100D580009F0BAFA33460090844A834807A903F099
:100D68002FF83E68012E0DD1206B814BC31A5842D3
:100D78005841FFF7EAFA31467B4802F096FA022317
:100D880084F820307B4B7C4A2B607C4B1A607C4B70
:100D98007C4A1A607C4BA26B1A607C4B1C60052451
:100DA800DFF8EC81784EDFF81C922B6842F610428F
:100DB800774930689847D8F800304B4540F0C080F4
:100DC8003B68042B40F08580D8F8A4305A1E0332C3
:100DD8007FD8704A6E49136042F610422B6830681B
:100DE8000CB0BDE8F0471847FFF7DEFA0223089376
:100DF800AEE75B4804F064F8674C062009F076FA21
:100E080007AE0221062004F093F80FCC0FC654F861
:100E1800043BD7F80080336003AE94E80F00B8F1C4
:100E2800030986E80F0018BF4FF00109FFF7FFFA22
:100E38000223B8F1030F4C4C08934DD0574B2B604D
:100E4800099B03F1A043099301230B93544B236699
:100E58004FF0010A002001F082F884F879A084F8A4
:100E6800789009F037FA334600904E4A4E4807A961
:100E780002F0A6FF4C4E90BBB8F1030F32D03046BB
:100E880002F0FAFCDFF80C91DFF83C81C9F80000A9
:100E9800304602F0B1FD5146C8F80000304684F8EB
:100EA8006AA002F0C2FBD9F8000004F03FFFD8F8AE
:100EB800000004F041FF3D49D4F8800004F0D8FD5B
:100EC800314BE26F1A60314B1E602B68002B7FF4A8
:100ED80066AF0CB0BDE8F087264B2B60B8E7B8F1D9
:100EE800030FEDD1254B244A1A60254B254A1A6079
:100EF800E6E71B4803F0E4FFFFF7C0FA00F080FDC7
:100F0800012801D0FFF7D0F9294B2A4A2B601E4B44
:100F18001A6000221D4B1A6041E7114803F0D0FF08
:100F2800FFF7ACFA00F05CFB234B186010B1C0B2BD
:100F3800FFF7BAF9214BE8E75320FFF7B5F9C4E703
:100F48001F4801F00CF8013C7FF42FAF43200CB090
:100F5800BDE8F047FFF7A8B9249F0420146D0420CA
:100F680000882A1148A90220206F0420186D042047
:100F780085601700250A022099090220106D0420B7
:100F88000C6D04203D090220046D0420086D042026
:100F980014730420042C04206CA90220390A0220AE
:100FA800845A0420806D0420646F0420044A0420BD
:100FB800B90A022000100062004A0420210B022016
:100FC80040420F0046434553002C0420032808B52F
:100FD8000CD800022022074900F47F4001F066FC8B
:100FE80000280CBF6FF00100002008BD4FF0FF3053
:100FF800FBE700BF9472042013B501380C460328A0
:101008001ED8DFE800F0020C09101022002002B000
:10101800BDE8104001F04ABC08228020F7E72022F2
:101028004FF44070F3E70422C0200DEB020101F0F9
:101038003DFC042804D10120019B237002B010BD9F
:101048000020FBE738B505460F4C1022E3680F492E
:1010580043F00103E3600120FFF7CEFF20220021C7
:101068000B4809F0EBFB02232021084A002000F07E
:10107800EFFF202329460020054A01F02DF8E368F8
:1010880023F00103E36038BD00B00050C4720420AF
:101098007472042038B504460D4610220849012010
:1010A800FFF7AAFF02232021054A002000F0D0FF05
:1010B80020232A462146002001F00EF8002038BDE2
:1010C800C472042038B50A4D044608222946032074
:1010D800FFF792FF0023C5E902330F2324092CB13F
:1010E800EC54013B0B2B4FEA1424F8D1004838BDCF
:1010F800B47204202DE9F0478046894692460021C3
:101108004FF4007214481E46089F002409F096FB0D
:10111800A64202D82046BDE8F087351BB5F5007F0A
:1011280028BF4FF4007509EB04012A460A4809F064
:101138009FFBE019FFF7C6FF012302462021404626
:1011480000F086FF0AEB04022B460020024900F05B
:10115800C3FF2C44DCE700BF7470042010B50446BC
:10116800084B4FF440511B684FF090509847064B7E
:101178002146BDE8104042F610424FF090501B68DF
:10118800184700BF0C6D0420146D0420002337B5E8
:101198000B4D6946CDE9003304222B680446984775
:1011A80004222B680DEB0201A018984700986FF3F2
:1011B8000F0000F160435842584103B030BD00BFF2
:1011C800146D0420054B82B09B6B0193019B13B1F6
:1011D800019B02B0184702B0704700BF00000C50D6
:1011E800094B02461B6863B193F8230048B9196993
:1011F800914207D85B691944914294BF00200120AD
:1012080070470020704700BF086D04202DE9F04F9B
:101218005E4F841E07EB001307EB4020D3F80480D1
:10122800DD68B0F8063C85B0DB0740F195804FF4E7
:10123800937107F5827000F0C4FD10B1012000F031
:101248000DFE072C00F393800320FFF7BFFE6242D8
:1012580002F0030204F0030358BF5342022B00F2CA
:1012680086802846FFF7BCFF41F2080382464FEA12
:101278004429DFF82CC107EB09061E440FCEACE861
:101288000F0096E80F008CE80F00BAF1000F4BD062
:1012980004F10806ACF110007602FFF7D3FEBA5944
:1012A800DFF8F0A02A440020DAF800B00392FFF734
:1012B80009FF29460346039A584602F064F929466D
:1012C800DAF80000BA59A8EB050302F04BF901213E
:1012D800DAF8000002F06FF904F1080309F581500B
:1012E8005B0208302A46FB582949384400F081FD42
:1012F80010B1022000F0B2FDD5F800D0D5F804F006
:101308002846FFF76DFF002834D0224808346402CD
:1013180029463A590068A8EB050302F023F9D5F8E5
:1013280000D0D5F804F022E0ACF1100020221A49D0
:10133800FFF7B0FE04F10806184B76022946BA59A1
:1013480040461B689847CDF800A02A462946BB5955
:101358001148FFF7CFFEBFE7072C08DC624202F016
:10136800030204F0030358BF5342022BC8D905B047
:10137800BDE8F08FA845D2D0084B0834640229464E
:1013880040461B683A599847C9E700BF14730420C0
:1013980018740420086D0420D4720420146D0420ED
:1013A800F47204202DE9F743564B1A68564B9A42BB
:1013B80040F0A480554C564F564E002504226946ED
:1013C80020463B68009598470428024646D1524B70
:1013D8000099994242D13B68019501A9201F98477D
:1013E80004283BD1019B002B38D04C4C2046FFF7FA
:1013F800CDFE002837D108200AF06CFF05460520ED
:101408000AF068FFDFF82C8145493B68454F0646DE
:1014180042F610424FF09050C8F800109847424CDE
:10142800D7F8089CA14548D1EBB2042B20D0062B55
:1014380033D0012B3CD1D7F8083C5A1C5ED03B4A2C
:1014480014681C1BA4F58054640A0234FFF744FA9C
:10145800204603B0BDE8F043FFF7D8BE04F5A674F4
:10146800B442AAD1C7E7D4F800D0D4F804F0C2E750
:101478002F4C08200621C7F8084C0AF025FFD8F899
:10148800000000F50053C3F8084C1EB100F5805366
:10149800C3F8006CFFF762FECDE7012108200AF0CF
:1014A80013FFD8F8000000F50053C3F8089CF1E7D3
:1014B800012108200AF008FFBDE71D4B9945BAD164
:1014C800EBB2032B05D0052B16D0022BB3D002218B
:1014D800EFE708200521C7F8084C0AF0F5FED8F810
:1014E800000000F50053C3F8084C002ED2D000F5D8
:1014F8008053C3F80064CDE70221CFE703B0BDE80D
:10150800F08300BF147304204643455348712012EA
:10151800146D04202C752012006E007500800012D6
:101528002C9F04201493042000140012046D04203E
:10153800001C0012289F042008B50E4B5B68DBB224
:10154800062B0AD80C4A936A23F07F0343F006035C
:101558009362536843F080035360002000F0FFFC5F
:10156800064B074A00205A60FFF730FDBDE80840E7
:10157800FFF728BE00B0005000A00C5000C000507B
:101588008FD00200144C08B5002000F0E8FC636816
:10159800124DDBB2062B0FD9FEF7BEFFFEF7ACFEED
:1015A800FEF79CFF2860E36823F00103E360FFF780
:1015B80089FBFFF7F7FEFEE7FEF790FF2860FEF7CE
:1015C800ABFFFEF799FEE36823F00103E360FFF742
:1015D80079FBFFF7E7FEEEE700B00050249F0420F8
:1015E80070B58CB000F068F98D4C8E4B00252363E4
:1015F800236B4FF4FA7043F0020323634FF0007338
:10160800E562236200F0ABFC2946284600F086F923
:101618000123E365E36D9D07FCD5E36B43F02003ED
:10162800E3638149012007AD00F078F906AB05AA0C
:1016380004A90DF10F00009500F0AEF9142000F098
:101648008EFC049B002BECDA142000F088FC0021AF
:10165800022000F063F9012800F0818002287ED082
:1016680008AB0AAA0BA900930DF10F0009AB00F013
:1016780093F9142000F073FC4FF48031032000F03C
:101688004DF9012800F0AB80022800F0AA8006ABD3
:10169800009505AA04A90DF10F0000F07DF99DF849
:1016A8000F30032B40F09F805D4C1420E36B23F038
:1016B8002003E36300F053FC4FF48031092000F06D
:1016C8002DF9012800F09180022800F0908005AAE9
:1016D80004A906AB0DF10F00009500F05DF94FF479
:1016E800B8532363236B142043F0020323634FF0A2
:1016F800007323620223E36300F031FC4FF480316E
:10170800072000F00BF9012873D0022873D006AB2C
:10171800009505AA04A90DF10F0000F03DF99DF808
:101728000F30072B69D14FF0FF33012100202360D0
:1017380000F042F90021082000F0F0F801285ED0FE
:1017480002285ED006AB009505AA04A90DF10F008A
:1017580000F022F99DF80F30082B02D00D200CB0B4
:1017680070BD2023E36200F037F923681806F5D42A
:101778002368590647D48026013ED4F80032FBD1AD
:101788000121304600F018F9142000F0E8FB4FF072
:10179800FF3331461120236000F0C0F8012834D00F
:1017A800022834D006AB009505AA04A90DF10F0054
:1017B80000F0F2F89DF80F30112B2AD12023E362B4
:1017C80000F00AF923681A0625D423685B0624D496
:1017D8008020134B0138D3F80022FBD1BFE7032048
:1017E800BDE70420BBE70520B9E70620B7E70720D7
:1017F800B5E70820B3E70920B1E70A20AFE70B20D7
:10180800ADE70C20ABE70E20A9E71120A7E71220CF
:10181800A5E71320A3E71420A1E715209FE700BF41
:101828000050045000670100800000402DE9F0419D
:1018380007464FF0FF3888B000200D461D4E0121A5
:10184800144600F0B9F8142000F089FB1120C6F8FE
:101858000080790A00F062F84044C0B2012803D839
:10186800002008B0BDE8F08107AB009305AA06ABDD
:1018780004A90DF10F0000F08FF89DF80F30112B1F
:10188800EED12023C6F80080F36200F0A5F8336893
:101898001A06E5D433685B06E2D424F003032B442C
:1018A8009D4201D12046DCE7D6F8002245F8042BFA
:1018B800F6E700BF0050045010B54FF0A044E368AD
:1018C800642023F01003E36000F049FBE368074A53
:1018D80043F01003E360136943F0020313614FF40C
:1018E8008072034B1A630022DA6310BD00B0005007
:1018F80000500450084B1A6812F00A0FFBD002225D
:101908001A601A6812075FBF1868C0F380004000A9
:10191800C0B248BF01207047005004500E4B0F283A
:1019280099604FEA804313D8012248F2110182409E
:101938000A4205D140F204610A4209D043F4403317
:10194800054A43F4807343F001035360FFF7D2BFA5
:1019580043F48033F4E700BF00500450F8B505465F
:101968000F4637201104FFF7D9FF044668B9084B22
:10197800084E43EA8543B7607360FFF7BBFF022850
:1019880004D1292D02D1042333602046F8BD00BFBD
:10199800010101000050045030B5064CE56805709F
:1019A8002069086061691160A2691A60E269039B95
:1019B8001A6030BD005004504FF0FF33044A03EB67
:1019C80041239362034B43EAC0235362704700BF2D
:1019D800005004500103FF01084B1A6812F0E00F91
:1019E800FBD020221A601A6812065FBF1868C0F37D
:1019F80080104000C0B248BF01207047005004501A
:101A0800F0B58DB0FFF758FF8F4C904B002523633E
:101A1800236B4FF4FA7043F0020323634FF48013EF
:101A2800E562236200F09BFA29462846FFF776FF15
:101A38000123E365E36D9A07FCD5142000F08FFAC3
:101A48004FF4D5710820FFF769FF0138C0B20128AB
:101A580002D838200DB0F0BD07AC06AB009405AA3B
:101A680004A90DF10F00FFF797FF9DF80F30082B21
:101A7800EFD1049BB3F5D57FEBD1142000F06FFABA
:101A8800002229207249FFF769FF012800F0D08061
:101A980006AB009405AA04A90DF10F00FFF77CFF1F
:101AA800049B002B03DB022000F059FAE5E7142021
:101AB80000F055FA00210220FFF730FF0138C0B2CC
:101AC800012840F2B78008AB0AAA0BA900930DF1D0
:101AD8000F0009ABFFF760FF142000F040FA002167
:101AE8000320FFF71BFF0138C0B2012801D83320BB
:101AF800B0E706AB009405AA04A90DF10F00FFF7A3
:101B08004BFF9DF80F30032BF1D1049E1420350CA8
:101B18002D0400F024FA29460920FFF7FFFE0138BA
:101B2800C0B2012840F28880009406AB05AA04A937
:101B38000DF10F00FFF730FFDDE90420069C07993F
:101B4800230E43EA0123010E41EA04210591110EF7
:101B5800049341EA002112029B0F069107921ED0BE
:101B6800012B6BD100233B4A374C13704FF4A06311
:101B78002363236B022743F0020323634FF00073B0
:101B880014202362E76300F0EAF929460720FFF7EB
:101B9800C5FE0138C0B2012803D837205AE701230F
:101BA800E1E707AD06AB009505AA04A90DF10F0002
:101BB800FFF7F2FE9DF80F30072BEED1142000F04E
:101BC800CEF939460620320CFFF7C8FE0138C0B2FC
:101BD800012835D901210846FFF7EEFE142000F050
:101BE800BEF900211120FFF799FE0138C0B2012883
:101BF80001D852202EE706AB009505AA04A90DF1DD
:101C08000F00FFF7C9FE9DF80F30112BF1D14FF0EF
:101C1800FF3323602023E362FFF7DEFE23681B0601
:101C280010D4236813F0400F14BF4420012011E79B
:101C380034200FE732200DE739200BE7542009E75D
:101C4800362007E74F2005E70050045000670100E1
:101C58000080FF40082C042070B50D46012188B093
:101C6800064608461446FFF7A7FE142000F077F949
:101C78001A4B1B7803B9760A31461120FFF74EFE3E
:101C88000138C0B2012802D8002008B070BD07ABE7
:101C9800009305AA06AB04A90DF10F00FFF77CFE1F
:101CA8009DF80F30112BEFD14FF0FF330C4E3360FE
:101CB8002023F362FFF790FE33681A06E4D43368F2
:101CC8005B06E1D424F003032B449D4201D1204656
:101CD800DBE7D6F8002245F8042BF6E7082C0420A9
:101CE800005004502DE9F0470C46154699468046A9
:101CF80000283FD000293DD0002A3BD0032B39D8FB
:101D080000F040FA00224946104600F043FAB4F5C4
:101D1800807F29D90026374606F58076A64234BF4B
:101D28004FF0000A4FF0010A4FB100F02BFAA6421B
:101D38002CBF3A4600224946284600F02BFAA64214
:101D480034BF4FF48071E11B524608EB070000F0E6
:101D5800FBF9284600F04CFAA642DCD3284600F0EE
:101D680047FA0020BDE8F08701222146404600F0EE
:101D7800EBF9F3E74FF0FF30F4E7F0B5054689B02B
:101D88000F4614460021202268461E4608F056FDDC
:101D98001DB94FF0FF3009B0F0BD002CF9D0022377
:101DA8006A4639462846FFF79DFF0028F1D132469A
:101DB8002146684608F032FD003818BF012040422D
:101DC800E9E7002337B504460D4608226946032093
:101DD800CDE90033FFF710F90828034606D16A4613
:101DE80029462046FFF7C9FF03B030BD4FF0FF304A
:101DF800FAE7F0B51F4616468DB0202204460D4678
:101E080004A8002108F01AFD02233946304604AA26
:101E1800FFF768FF18B14FF0FF300DB0F0BD02A812
:101E280007F068FA29464FF4937202A807F06EFB90
:101E380001460028EFD10622039807F00EFC4FF464
:101E480080730621CDE9004304AA202302A807F0E5
:101E580085FA003818BF01204042DEE7012808B59E
:101E680004D0022809D01322054901E017220549A8
:101E78000548FEF70DFAFEE708BD19220349F7E702
:101E8800C2A9022090A9022000400850A8A9022057
:101E980000207047014B1868704700BF40CB0420F2
:101EA80013B50190019B1A4C33B1236823B1019BF0
:101EB800B3F1807F0CD9FEE7002003F01DF8154B25
:101EC800B0FBF3F0019B2060002BF0D102B010BDF5
:101ED800019B002BFAD0104A136813F001030DD1AF
:101EE8000E48D0F8FC1041F08071C0F8FC10536027
:101EF800136843F4003343F001031360019B226825
:101F08000549534348684A68121A9A42FBD3DDE7E9
:101F18003CCB042040420F00001000E000ED00E040
:101F280037B501904FF0E0204FF47A724469019B75
:101F38006343B3FBF2F301930023816982698A4208
:101F4800FCD025BFA51A5B195B185B18019938BF2F
:101F58009B1A994201D803B030BD1146EEE70346FB
:101F680070B5B8B142F210754FF0E026AB4284BFAD
:101F7800A3F51C5442F21073326998BF0024184626
:101F880088BF103CD30708D4FFF78AFF2346002CEC
:101F9800ECD101E0FFF784FF70BDFFF7C1FFF5E763
:101FA8007047704708B5054B1B6A5B0002D5FFF701
:101FB800F8FF08BDFFF7F4FFFBE700BF00B00050D3
:101FC80010B501F17044B4F1805F0E4C38BF01F1D7
:101FD800A041616102F17041B1F1805F03F10F032B
:101FE8004FEA231338BF02F1A042A261E3612369DB
:101FF80008B143EAC013034A2361136843F001039D
:10200800136010BD00D0005000F1704310B5B3F15B
:10201800805F094C38BF00F1A0406065A1651AB126
:10202800236D43F008032365216D044800F0A4FCE8
:102038000423236010BD00BF00D00050D6A90220A1
:1020480002220020014B1A601860704700D000502F
:10205800F8B51F461E4B04465B681646DB0701D5DC
:10206800FFF7EEFFB4FA84F018294FEA50104FEA50
:1020780040151CD020291CD0102925D1002364B17B
:102088002046144A21F003012144121B141850F869
:1020980004CB8142C4F800C0F8D147EA050040EA01
:1020A800C3000B4B186107B12EB90020F8BD0123FE
:1020B800E5E70223E3E732681A6272685A62B26897
:1020C8009A62F268DA62F0E74FF0FF30EEE700BF9D
:1020D80000D0005030D00050F8B50827174E1446ED
:1020E8001D46C6F88870BFF34F8FBFF36F8F002768
:1020F800134EF760FFF764FF7368DB07FCD4B06822
:1021080000F00600003818BF0120B4F1C04F13D307
:10211800002D11DD04F01F032B44BFF34F8F22461F
:10212800084C1344C4F85C222032991A0029F9DCBF
:10213800BFF34F8FBFF36F8FF8BD00BF00E100E022
:1021480000D0005000ED00E010B508240B4BC3F898
:102158008840BFF34F8FBFF36F8FFFF755FF084BD2
:102168005A685207FCD49A6802F038029A60986854
:1021780000F03000003818BF012010BD00E100E079
:1021880000D0005008220020014B1A6018607047E8
:1021980000D00050930670B506460C4615461CD173
:1021A80003291AD8FFF7EEFF3EB10D4B0D485A5CD4
:1021B800314608F05DFB44F020040B4B44F08001ED
:1021C80019651DB1C3F89C5044F4C07107482A46EC
:1021D800196500F0D1FB002070BD4FF0FF30FBE720
:1021E8006CB002205CD0005000D00050E9A9022059
:1021F80010B5084C084A236D04F17C0103F007036D
:10220800D25C08F035FBD4F8A4100448BDE81040AF
:1022180000F0B2BB00D000506CB002201DAA022012
:10222800002800DAFEE701234109034A00F01F00F5
:10223800834042F82130704700E100E0002800DACE
:10224800FEE701220649430900F01F0082402033BF
:1022580041F82320BFF34F8FBFF36F8F704700BF44
:1022680000E100E0022330B5426A80F82D300368AF
:102278001A61D0E90234234304690168234344699D
:102288000A68234384696FF30E122343C469234306
:10229800046A234313430B608368B3F5804F18D057
:1022A800C16C826CC1F38703C9061BD43F2403F0B9
:1022B8000703D2F8A810DB009C4021EA0401C2F809
:1022C800A810816C4268D1F8A8409A402243C1F80E
:1022D800A8208269B2F5806F18D0B2F5006F1FD0C0
:1022E800AAB1FEE73F2403F00303D2F8AC10DB00E9
:1022F8009C4021EA0401C2F8AC10816C4268D1F814
:10230800AC409A402243C1F8AC20E2E7012243697D
:10231800B3F5807F06D0B3F5007F2BD01BB1FEE765
:102328000222F4E701230169A1F1800461426141BD
:10233800C468A4F140056C426C418568102D1FBF2C
:1023480080F86510194613460A4680F8673080F809
:1023580066204FF000034FF00102436406BF80F887
:10236800654080F8641080F8644080F82D2080F87B
:102378002C3030BD0223D6E7F8B52E4B0268134443
:10238800A02B04D92C4B1344A02B0FD9FEE73226DF
:10239800DFF8B0C0294BEFF31087012282F31088D1
:1023A800C56C1F2D4FEA950405D9FEE70226DFF814
:1023B80098C0234BEFE703EBC40595F804E0BEF1A2
:1023C800000F32D053F83420824203D187F31088AB
:1023D8000220F8BD00221C791D4604BB01232B7185
:1023E800142303FB02C31644920074B20360C26450
:1023F80087F3108821B12B68834201D0FFF732FFA1
:102408002860836A04F160425B01DBB202F5614235
:10241800204682F80033FFF703FF0020D9E7013296
:10242800082A03F10803D6D1D0E734442A7164B2EC
:10243800DEE700BFF8EFF7AFF8EFFFBF84CB04206B
:1024480044CB0420081008500810004038B5134A3F
:10245800836C934203D0124A934208D0FEE732219C
:10246800104AC46C1F2C4FEA940303D9FEE70221DB
:102478000D4AF6E7EFF31084012585F3108802EB87
:10248800C30552F83320904205D1581840B2FFF7DF
:10249800D5FE00232B7184F3108838BD0010085036
:1024A8000010004084CB042044CB042038B50446F7
:1024B800002853D0836833F0100203D0B3F5804F5F
:1024C80000D0FEE7E36833F0400300D0FEE723695D
:1024D80033F0800300D0FEE7636933F4807203D0E1
:1024E800B3F5007F00D0FEE7A36933F4806203D020
:1024F800B3F5006F00D0FEE7E36933F0200300D0A6
:10250800FEE7236A33F4405300D0FEE763683F2BAD
:1025180000D9FEE72268134B13448C2B13D81422DE
:10252800B3FBF2F39B00E3640F4BA3640021204646
:10253800FFF722FF054698B92046FFF793FEFFF7FD
:1025480085FF284638BD094B13448C2BEED814223E
:10255800B3FBF2F39B00E364054BE6E70125F0E7E4
:102568000225EEE7F8EFF7AF00100850F8EFFFBFCD
:102578000010004010B50446002851D002681368C6
:1025880023F0010313600268264B13448C2B2FD8C9
:102598001421B3FBF1F39B00C364234BA364002312
:1025A8001360D4E9121303F01C02012393404B601B
:1025B800E36CA16C0F2B4FEA930224D83F205B00F9
:1025C800D1F8A82003F0380300FA03F322EA030342
:1025D800C1F8A8302046FFF739FF0020C4E90D00F4
:1025E800C4E90F00606484F82C0084F82D0010BD45
:1025F8000E4B13448C2BD2D81421B3FBF1F39B0060
:10260800C3640B4BCAE702F003033F22D1F8AC00C6
:10261800DB0002FA03F320EA0303C1F8AC30D9E780
:102628000120E4E7F8EFF7AF00100850F8EFFFBF1C
:10263800001000402DE9F84F90F82D301746022B76
:1026480004468846DAB205D004234364002384F89C
:102658002C3006E003681B68990605D54FF4807393
:1026680043640120BDE8F88FC56C05F01C05B8F17E
:10267800000F23D102FA05F5FFF70CFC4FF0080A0A
:102688008146D4E9126303F01C030AFA03F13268A5
:1026980012EA050B16D0B8F1000F36D1022202FA61
:1026A80003F37360236D2BB92046FFF7CFFE012398
:1026B80084F82D30002084F82C00D3E7042303FA93
:1026C80005F5D9E7326811420CD0012505FA03F364
:1026D800736020466564FFF7B9FE84F82D5084F8CE
:1026E8002CB0BEE77A1CD2D0FFF7D4FBA0EB0900D0
:1026F800B84201D8002FC4D1202320466364FFF7D5
:10270800A5FE012384F82D30A0E7042202FA03F382
:102718007360CFE730B5154B846C9C421BD183683E
:10272800102B02D0B3F5804F08D10B68104C03F181
:102738006045A54298BF03F120630B60836833F4BA
:10274800804308D113680A4803F16044844298BF63
:1027580003F1206313600B6803F17042B2F1805FEC
:102768003CBF03F1A0430B6030BD00BF0010004028
:10277800FEFF07002DE9F3414FF6FF75036D026870
:102788009D4228BF1D465B1B03658565136890F84D
:10279800667023F0010390F867801360D0E917236F
:1027A8000E46CDE90023D0E9122303F01C010123D2
:1027B80004468B405360036869465D6001AAFFF7D1
:1027C800A9FFDDE90003A168226810290BBF936007
:1027D8009060236822680CBFD860D36094F8643096
:1027E80023B1E36D05FA07F73B44E36594F86530D8
:1027F80023B1236E05FA08F52B44236636B1A26B84
:1028080023685AB11A6842F00E021A6022681368E7
:1028180043F00103136002B0BDE8F0811A6822F0AA
:1028280004021A602268136843F00A031360EDE794
:10283800F8B51D46C3690446202B0F46164605D138
:102848004FF6FE736A1E9A4200D9FEE794F82C30C0
:10285800012B0ED0012384F82C3094F82D30012B55
:10286800D9B203D12046FFF787FD20B1002384F8B1
:102878002C300220F8BD0223C4E91455C4E91776A8
:1028880084F82D306064206D0028F3D000212046A4
:10289800FFF770FF236D002BF5D04FF47A720021FB
:1028A8002046FFF7C7FE0028EDD0E3E7202A2DE9F0
:1028B800F84306460C46154630DCC0F3C40808EB5E
:1028C8000203202B2ADC970728D110F01F0925D1F5
:1028D800254A1420D2F89470360AFB1C0E2B38BFF8
:1028E8000E230F2B28BF0F23C2F89430FFF737FBB6
:1028F8001E4AB300136013681D4943F001031360B7
:102908004B4669439068C0070CD590688B4240F0ED
:10291800010090600AD3144BC3F894700025284630
:10292800BDE8F8838B42F0D20133EBE7114A08F097
:102938001C0000EB461025F00301024421448C42A0
:1029480003D1094BC3F89470E9E752F8043B043407
:10295800180A04F8043C04F8030C180C1B0E04F8BD
:10296800020C04F8013CEAE700A00C5000C000503B
:1029780000DC050030C000500FB404B07047000000
:10298800022810B520D1114CE620E36A43F0010378
:10299800E362FFF7E4FAE36A9A06FCD51E20FFF724
:1029A800DEFAE36A9B06FCD5EFF31081012383F37B
:1029B8001088074A1378132B00D9FEE701331370E8
:1029C80081F31088002010BD0120FCE700000C50A6
:1029D800C4CB0420044B1A6942F002021A611A6936
:1029E800002AFCDA704700BF00000C50024A136945
:1029F80023F002031361704700000C5010B5E0B1DA
:102A0800D9B100230122436080F822200C680460B9
:102A18004A6880F820208A680261CA681205426103
:102A2800FF22C4F884204FF0502401688C670168A5
:102A38000A62016818464A6410BD0120FCE738B1F3
:102A480002680020136C23F0FF03194311647047D8
:102A58000120704770B5C8B105689DF918609DF9E7
:102A68001C00AC6C40EAC60040EAC3239DF9100084
:102A78006FF3140443EA00239DF9140043EA80131A
:102A880043EA423242EA81412143A96470BD40B120
:102A980002680020136C23F47F4343EA0121116488
:102AA80070470120704770B5C8B105689DF9186076
:102AB8009DF91C002C6D40EAC60040EAC3239DF92D
:102AC80010006FF3140443EA00239DF9140043EA4D
:102AD800801343EA423242EA81412143296570BDAD
:102AE80018B103680020596070470120704730B161
:102AF80003680139C1F313010020596270470120AE
:102B0800704730B103680139C1F31301002099639C
:102B180070470120704708B103681962704718B1FF
:102B28000368186900F00100704720B10268536912
:102B380043F001035361704738B50D460446A8B108
:102B48000368DA61C36A0BB10120984723689D6165
:102B58002046FFF7E4FF0028FAD02046FFF7E5FFFC
:102B6800E36A0BB100209847002038BD0120FCE73C
:102B780018B10268536919435161704718B1036865
:102B88001869C0F3C000704728B103685868C0438B
:102B980000F0010070470120704708B103685868C9
:102BA800704720B10268536D61F38E2353657047F7
:102BB80008B10368D960704710B10368D868C0B21B
:102BC800704770B5E8B105689DF91C609DF9200053
:102BD800AC6A40EAC6009DF910606FF3150440EA3C
:102BE800C6209DF9146040EA06209DF9186040EA65
:102BF800861040EA433343EA824242EA4151214384
:102C0800A96270BD70B5E8B105689DF91C609DF9B1
:102C18002000EC6B40EAC6009DF910606FF31504C4
:102C280040EAC6209DF9146040EA06209DF9186024
:102C380040EA861040EA433343EA824242EA41517D
:102C48002143E96370BD000010B558B1064B046814
:102C580002F2FF320A441940E1661A400368002074
:102C68001A6710BD0120FCE700FCFFFF28B10368CC
:102C78006FF3090100205967704701207047000071
:102C880010B550B1064B04681940E1650168002091
:102C980002F2FF321A400A6610BD0120FCE700BFAD
:102CA80000FCFFFF50B149B10B6802681BBA5366BC
:102CB8004B6802681BBA0020936670470120704772
:102CC80058B1036801291A6804D142F08002002033
:102CD8001A60704722F08002F9E70120704750B16E
:102CE80003681A6821B142F0400200201A60704758
:102CF80022F04002F9E70120704750B103681A68D2
:102D080021B142F0010200201A60704722F001024E
:102D1800F9E70120704750B103681A6821B142F4FD
:102D2800001200201A60704722F40012F9E701200F
:102D3800704750B103689A6821B142F01002002030
:102D48009A60704722F01002F9E70120704750B1ED
:102D580003681A6821B142F4803200201A60704773
:102D680022F48032F9E70120704750B103681A68ED
:102D780021B142F4802200201A60704722F4802298
:102D8800F9E70120704730B580B10568BDF80C003F
:102D9800AC68800640EA8353002043EA81416FF320
:102DA8009E1441EA82122243AA6030BD0120FCE74A
:102DB80030B102680020936861F3020393607047A2
:102DC8000120704750B103689A6821B142F020028F
:102DD80000209A60704722F02002F9E7012070472E
:102DE80050B103681A6821B142F0807200201A605D
:102DF800704722F08072F9E70120704750B10368EC
:102E08009A6821B142F0004200209A60704722F08F
:102E18000042F9E70120704750B103689A6821B170
:102E280042F0080200209A60704722F00802F9E791
:102E38000120704740B102680020936D23F47F039E
:102E480043EA0141916570470120704760B100680D
:102E58005206836D42EA012123F0007323F47F4375
:102E680019438165002070470120704710B5F0B103
:102E78000468A06DB1B1022A84BF023AD2B213022B
:102E88006FF30F0003F4FE430343120654BF43F0ED
:102E9800806343F0A06343F00A0323F0007300202B
:102EA800A36510BD034B034043F00073F7E701200F
:102EB800F7E700BF0000FFFA30B10268936C23F413
:102EC800783343EA41319164704730B10268136D39
:102ED80023F4783343EA4131116570477FB50546DD
:102EE80000283DD0C46801B394F86A30002B37D06D
:102EF80094F9726094F96E3094F96C1094F96D201D
:102F0800039694F97160029694F97060019694F9A9
:102F18006F400094FFF79EFDEB6893F86A1028460F
:102F2800FFF78DFD002004B070BD94F84630BBB1AA
:102F380094F94E6094F94A3094F9481094F949206C
:102F4800039694F94D60029694F94C60019694F9B1
:102F58004B400094FFF77EFDEB6893F84610DEE7E0
:102F68000120E0E77FB50546002836D0C468E1B106
:102F780094F96E6194F96A3194F9681194F96921A8
:102F8800039694F96D61029694F96C61019694F92F
:102F98006B410094FFF75EFDEB6893F866112846D5
:102FA800FFF74DFD002004B070BD94F95C6194F901
:102FB800583194F9561194F95721039694F95B61A5
:102FC800029694F95A61019694F959410094FFF7D1
:102FD80041FDEB6893F85411E1E70120E3E730B5D0
:102FE800C46887B004B338291ED801EBC1010C446A
:102FF800237CCBB194F9185094F9133094F912202A
:1030080094F91110049594F91750039594F91650F2
:10301800029594F91550019594F914400094FFF71E
:10302800D0FD002007B030BD0120FBE7F0B5C46833
:103038000646174687B054B3382928D801EBC1058E
:103048002C44237C1BB394F918C094F9133094F9D9
:10305800122094F91110CDF810C094F917C0CDF8CA
:103068000CC094F916C0CDF808C094F915C0CDF875
:1030780004C094F914400094FFF7A3FDF3683A469E
:103088002B443046197CFFF757FD07B0F0BD0120EF
:10309800FBE72DE9F0419046C268044686B0002A55
:1030A80072D0382970D801EBC107D619317C0029B4
:1030B8006AD0382B68D803EBC3052A44137C002B4D
:1030C80062D096F918C096F9133096F9122096F93D
:1030D8001110CDF810C096F917C0CDF80CC096F9AC
:1030E80016C0CDF808C096F915C0CDF804C096F9F9
:1030F80014600096FFF765FDE068284490F91860B1
:1031080090F9133090F9122090F91110049690F963
:103118001760039690F91660029690F9156001966B
:1031280090F9140000902046FFF76CFD00222368F8
:103138000121DA67E36822682B441B7C2046D362AE
:1031480023680C9AC3F88020FFF701FE2046FFF79A
:103158000CFE2368C3F81C80E36822683B441B7C90
:1031680093612046FFF70AFD0028FAD0092120467E
:10317800FFF7FEFC0021FFF7EAFD2046FFF7F5FD0B
:10318800084606B0BDE8F0810120FAE770B50446AC
:10319800E0B3C368D3B3C9B393F893510121B5B36E
:1031A800FFF7A5FC002214212046FFF73FFF204629
:1031B800FFF7F3FC10F0010500D0FEE72A461521C1
:1031C8002046FFF733FF064620B12A462946204607
:1031D800FFF72CFF02212046FFF782FC0121204641
:1031E800FFF785FC00222B212046FFF71FFF6EB159
:1031F80001212046FFF77BFC002202212046FFF731
:1032080015FF2046FFF7C0FC0028F5D070BDFFF77A
:103218006EFC2A4602212046FFF708FF2046FFF7EA
:10322800BCFC2A4614212046FFF700FF10B92046AF
:10323800FFF7B3FCE3681B7AABB3012103F00F057A
:103248001B0901FA03F3DBB20DB11D46002300226E
:103258001521204643EA0525FFF7E8FE064620B17A
:10326800002220461146FFF7E1FE29462046FFF7D7
:1032780037FC02212046FFF73AFC002203212046B2
:10328800FFF7D4FE002EC1D001212046FFF72FFC06
:10329800002202212046FFF7C9FE2046FFF774FCF2
:1032A8000028F5D0B2E70225D1E738B504460D4627
:1032B800FFF76CFF29462046BDE83840FFF70EBEF1
:1032C80038B504460D46FFF761FF29462046BDE89C
:1032D8003840FFF747BE10B5044640B10268936A0C
:1032E8006FF3150343F4802343F001039362032132
:1032F8002046FFF7FCFB00229F212046FFF71CFC1D
:103308002046FFF74AFC20F07F4010BD70B5044608
:1033180000283ED0C368012193F89351002D3BD07B
:10332800FFF7E5FB002202212046FFF77FFE88BB5E
:103338002046FFF732FCC0B2E368DD790DB120EA20
:103348000505002215212046FFF770FE064620B12C
:10335800002220461146FFF769FE29462046FFF75E
:10336800BFFB01212046FFF7C2FB002203212046B4
:10337800FFF75CFE6EB101212046FFF7B8FB002283
:1033880002212046FFF752FE2046FFF7FDFB0028EA
:10339800F5D070BD0020CFE7FFF7A9FB2A46022130
:1033A8002046FFF743FE00283ED12046FFF7F5FBF5
:1033B800C6B2002214212046FFF738FE18B920466D
:1033C800FFF7EBFBC5B2E368D97909B126EA010139
:1033D8000022204641EA05251521FFF727FE06466B
:1033E80020B1002220461146FFF720FE294620463C
:1033F800FFF776FB02212046FFF779FB0022032125
:103408002046FFF713FE002EC3D001212046FFF708
:103418006EFB002202212046FFF708FE2046FFF738
:10342800B3FB0028F5D0B4E72E46C2E760B10068C8
:1034380050B1836D090623F0807301F0807123F089
:10344800FF03114319438165704738B50446D0B16D
:103458000368AB211D6815F0010502BF1A6842F028
:1034680001021A600268936A6FF3150343F00103BF
:1034780093620022FFF760FB25B92268136823F0E6
:103488000103136038BD0120FCE718B1C06800389B
:1034980018BF01207047002070472DE9F047884683
:1034A80099460446002845D08368002B42D0B9F1DC
:1034B800000F3FD001680F6832B310229A600023D2
:1034C80082684E465361826893618268D360802225
:1034D80083681A6105680435A068FFF74BF850BB8C
:1034E800A068FEF7E3FF30BB236847F020071F60A2
:1034F800226809F1FF335362414633462A46A068E1
:10350800BDE8F047FFF794B94FF400719A608368FB
:1035180009F1030659614FF40061836845469961D2
:103528008368B608DA60802283681A61036803F149
:103538000408D1E70120BDE8F08710B50A46044623
:1035480070B1806860B1E16A11B14FF0FF320021BB
:10355800FFF770F82268136823F02003136010BD8A
:103568000120FCE738B51D46044658B103698B4273
:1035780098BFC91AFFF768FB29462046BDE83840BE
:10358800FFF774BB38BD70B50C461546194606469C
:1035980080B17BB1FFF786FB33693046A34298BF01
:1035A800E41AAB4298BFED1A2A462146BDE870409E
:1035B800FFF766BB70BD10B5044648B101B10121E3
:1035C800FFF77EFB2046BDE810400121FFF787BBCF
:1035D80010BD10B50B46044686B020B308294FF03D
:1035E80000014FF0010283BF0B46CDE90212CDE97D
:1035F8000011CDE902118EBF1946CDE900115BB269
:103608000492FFF7DEFA03212046FFF770FA002242
:103618009F212046FFF790FA2046FFF7BEFA20F0D8
:103628007F4006B010BDFF20FBE738B50D460446C5
:1036380098B3C3688BB39A7992B39B7A83B3012109
:10364800FFF755FAE36802219A792046FFF7EEFC66
:103658002046FFF7A2FAE3689B7ADDB143EA00014E
:103668002046FFF73DFA01212046FFF740FAE368BC
:1036780003219A792046FFF7D9FCE36884F825509E
:1036880002219A792046FFF7D1FC2046FFF785FAF8
:10369800002038BD20EA0301E2E74FF0FF30F8E7E9
:1036A8006FF00100F5E710B5044620B3C2681AB3FD
:1036B80013791BB3D3790BB30121FFF718FAE36829
:1036C80002211A792046FFF7B1FC2046FFF765FA78
:1036D80094F824203F2A4FEA121304D8012B08D863
:1036E80000F0300007E0043B012BF9D800F0F000AF
:1036F80001E000F0700010BD1046FCE71846FAE73C
:103708000346081172B1072B0CD8DFE803F0040D4B
:10371800182E353F474C28B1012813680AD143F0C9
:10372800010313600020704720F00203012B03D02F
:10373800D0B11368034316E013680343F1E7052883
:10374800F7D801A353F820F02D3702204137022083
:1037580069370220413702203B37022041370220D7
:10376800136843F00203136070470028DAD0431E41
:10377800052B1368E1D9DDE7C30700F0030102D484
:103788000029CFD0D5E713680B43CAE70028C9D072
:103798001368082843EA0003E5DCC2E70028C1D023
:1037A800431E012BE5E70028BCD0431E022BE0E7AF
:1037B80010B590F82530044683B1FFF774FF014631
:1037C80060B12246636843F4004342F8043F94F82A
:1037D8002400BDE810400009FFF792BF002010BD8B
:1037E80038B50D46044648B3C3683BB39A790AB165
:1037F8001B7A0BB9002038BD0121FFF778F9E3687F
:1038080002219A792046FFF711FC2046FFF7C5F9F7
:10381800E3681B7A7DB143EA00012046FFF760F9AF
:1038280001212046FFF763F9E368032120469A79CE
:10383800FFF7FCFBDEE720EA0301EEE74FF0FF307D
:10384800D9E710B504460121FFF751F902212046B6
:10385800FFF746F9E36803215A792046FFF7E6FBAC
:1038680000212046FFF73CF9E368032120465A79F6
:10387800FFF7DCFB002010BD40B190F8243013F0B6
:10388800010F14BF4FF480504FF4006070472DE9CA
:10389800F04F85B00E4691461D4604460F9FB0B1C5
:1038A800C368A3B1C36993B1802F10D8FFF7E4FFB1
:1038B80000F1FF3A0AEA010A0AEB0503834280464F
:1038C80007D902206060002005B0BDE8F08F012014
:1038D800F8E70023636023694FF0000B8B4298BF21
:1038E800CE1AB6FBF0F204212046FFF79FFB142006
:1038F800FEF7D6FA01212046FFF7F9F80520FEF772
:10390800CFFAE268022112792046FFF78FFB2046A2
:10391800FFF743F9C107F1D4BBF1000F02D14FF013
:10392800010BEBE72046FFF743FF10B140F40040DE
:10393800C8E794F82020E368B2BB93F84610204605
:10394800FFF77DF8E06890F94EC090F94A3090F999
:10395800492090F94810CDF80CC090F94DC0CDF829
:1039680008C090F94CC0CDF804C090F94B00009005
:103978002046FFF76FF8B203D4F810B004D594F8D6
:1039880027200AB14BF4805B49EA050242EA0A02A1
:10399800930702D16A1EFE2A21D82A4648460BEB15
:1039A8000A0106F065FF1DE093F86A102046FFF74C
:1039B80046F8E06890F972C090F96E3090F96D2081
:1039C80090F96C10CDF80CC090F971C0CDF808C012
:1039D80090F970C0CDF804C090F96F00C7E7B9F14D
:1039E800000FDAD10E9B2BB13A4618460BEB0801B3
:1039F80006F03EFF781967E708B50246FFF73CFF77
:103A080028B192F824309B074CBFC001800108BD43
:103A18001FB5044610B9002004B010BDC369002BBF
:103A2800F9D0FFF7E9FF0423019303AB00930023C8
:103A380041431A462046FFF72AFF40B19DF80C3053
:103A4800FF2BE8D00398002808BF0120E4E70120F5
:103A5800E2E72DE9F04F99B004460E469146FFF78C
:103A680014FD18B3002B00F0D780B3F5807F28BF72
:103A78004FF48073A1681D46626994F820300029CC
:103A88003BD0B2F1807F14D9022B14BF27272827F7
:103A980039462046FFF7A3FA49462B46012220461D
:103AA800FFF7FBFC014648B10025284619B0BDE8E0
:103AB800F08F022B14BF16271727E9E73246204656
:103AC800FFF7B4FA01212046FFF71BF8012332461D
:103AD8000093394602232046FFF7DBFA0028E3D19A
:103AE8004FF47A712046FFF728FD0028DCD12268C0
:103AF800136823F020031360D7E7B2F1807F40F208
:103B08008280022B14BF272328232F464FF000085A
:103B180003934FF6FC7A402FD4BF0AEA070A0AF04B
:103B2800400ABAF1000F3FD0002220461146FFF7A5
:103B38007DFA09EB08030DF1200C03F1400E6246F3
:103B480018685968083303C273459446F7D14FF093
:103B5800000B4FEAAA0208AB53F8041B2046059253
:103B68000493FEF7BDFF059A0BF1010B9345049BE7
:103B7800F2D151462046FEF7BAFF2046039906EBDC
:103B88000802FFF753FA01212046FEF7B0FF002292
:103B980002212046FFF74AFA2046FEF7F5FF0028E3
:103BA800F1D0A7EB0A07D0447B1E022B30D823693B
:103BB800464433431B683A4609EB080107A80793B4
:103BC80006F056FE002220461146FFF72FFA079905
:103BD8002046FEF785FF04212046FEF788FF32467F
:103BE80020460399FFF722FA01212046FEF77FFFBE
:103BF800002202212046FFF719FA2046FEF7C4FFEB
:103C08000028F1D051E7022B14BF162317237CE7B5
:103C1800002F3FF77EAF48E7184647E773B50446DD
:103C28000D46FFF732FCE8B163690A46B3F1807FBD
:103C38004FF00001204694BF1B262926FFF7F6F90E
:103C480001212046FEF75DFF01232A4600933146F5
:103C580002232046FFF71DFA003818BF0120404212
:103C680002B070BD4FF0FF30FAE7000008B5E8B1C8
:103C780003680F4A93420CD002F58052934215D143
:103C8800062001F08DF8022805D1BDE8084001F0B2
:103C9800BCB80420F5E7032803D1BDE8084001F0CB
:103CA800B7B80120BDE8084001F016B9002008BDEA
:103CB8000010045038B5054608B9002038BDFEF795
:103CC8007BFF04460028F8D02846FFF7CFFFB0FB5B
:103CD800F4F0F3E738B190F8233013B10021FFF77F
:103CE80078BCFFF7F8BAFF2070477FB504460A464C
:103CF80051B3C56895F8FF31002B3BD090F82030C0
:103D0800C3B395F9076295F9022295F9033295F93B
:103D18000112039695F90662029695F905620196D5
:103D280095F904520095FEF795FEE368204693F84E
:103D3800FF11FEF784FE0121204694F82520FFF7A5
:103D480095F8002004B070BDFFF790F8636994F807
:103D58002010B3F1807F06D919B92046FFF702F980
:103D6800EFE70121F9E719B92046FFF7B7F8E8E7C7
:103D78000121F9E70120E5E710B50446F0B1026832
:103D88001420D2F8943043F00043C2F89430FEF780
:103D9800E6F82368D3F89420D205FBD5D3F894002D
:103DA800D3F89420C0B222F00042C3F8942094F8CB
:103DB800253023F07F03034384F8253010BD00002D
:103DC8002DE9F0430E4690461F46044687B000286A
:103DD80000F0E580002900F0E280FEF70FFE206881
:103DE800FFF759FB3369002184F83430B36805467E
:103DF800A363F36884F824101B05E363022384F8A3
:103E080036303369C4F808805A1E5342534184F847
:103E18002330B8F1000F58D0002F56D03B68C8F8AF
:103E28000030A368FA685A601022A3689A6080225A
:103E3800A368D960A3681A614FF48052A3685961D6
:103E4800A3689961A368D961A3681A62A3685962D3
:103E5800C0B16FF07F43984214D0012694F8233004
:103E6800002B3DD1002E5AD12046FFF7EEFA3046FE
:103E7800FEF775F83220FEF772F82046FFF72AFFA2
:103E880005464CE001212046FEF78BFEA74BA269B0
:103E980020469A424FF000028CBF01211146FFF7DD
:103EA800C5FA20469DF83810FEF782FE94F83530A2
:103EB8002BB1012B10D100212046FEF791FF0121E3
:103EC8002046FEF71AFF0026C8E7002DDED06FF067
:103ED8007F439D42C1D1D9E7022BF0D10121EBE705
:103EE800226800279368394643F070739360012372
:103EF8003A462046CDE90373CDE901773B46009762
:103F0800FEF75FFE3A46FF212046FEF715FE3846CB
:103F1800FEF725F8C820FEF722F8002EADD094F859
:103F28002330EFB2C5F307282563C5F3074542469A
:103F380029463846ABB301F0D7F9E060A0BB94F846
:103F480023302BB308212046FFF743FBC0F3072893
:103F5800C0F30745C7B2206342462946384601F0F8
:103F6800C3F9E06000BB0F212046FFF732FBC0F326
:103F78000728C0F30745C7B220634246294638469A
:103F880001F0B2F9E06078B901F0C4F9E06058B91D
:103F980000212046FEF7B1FE0023C4E90E330120BC
:103FA8004CE001F059F9C8E794F823304246294615
:103FB8003846002B45D001F0BBF9424629468146D8
:103FC800384601F0BFF94246294684F827003846AA
:103FD80001F0C1F9424684F824002946384601F028
:103FE800C3F994F8243043EA001384F82430B9F173
:103FF800000F03D0C4F83C90C4F8149094F8233010
:10400800002B73D1002E6ED12046FFF77FF963692C
:10401800B3F1807F38D9324621212046FFF706F8D0
:1040280094F820308BB93146204684F82660FFF793
:1040380047F907212046FEF7BBFE002007B0BDE880
:10404800F08301F01DF98146D1E701212046FFF7F1
:1040580037F994F82690B9F1010FEAD1424629467A
:10406800384601F017F938B12046FFF785FE494672
:104078002046FFF73AFEDCE7324631462046FEF797
:10408800F5FE84F82660D4E794F8203033B9314639
:10409800204684F82660FFF708F9CEE7012120467C
:1040A800FFF703F994F82690B9F1010F15D14246AC
:1040B8002946384601F0EEF838B12046FFF75CFE95
:1040C80049462046FFF711FEB7E7324631462046FB
:1040D800FEF7CCFE84F82660AFE73246314620462C
:1040E800FEF7C4FEA9E784F82630A6E7012120469A
:1040F800FEF7FDFCE36802211A792046FEF796FFD9
:104108002046FEF74AFD05460A20FDF728FFEB0783
:10411800ECD42046FFF795FB94F82030022B8CD185
:1041280001212046FFF75CFB87E700BF00E1F505AA
:104138001FB50190019B114C0BB1206840B90020BC
:1041480000F0DAFE0E4BB0FBF3F0019B20609BB150
:10415800302882BF019B03F1FF330193019B5BB1C0
:104168000522019B013B4343B3FBF2F30393039BFB
:104178005A1E0392002BFAD104B010BDC8CB0420FC
:1041880040420F0070B50E461546044658B3022249
:104198000368DA600268936D23F000739365026820
:1041A8000020D2F8943043F00043C2F89430FFF76F
:1041B800BFFF1420FFF7BCFF2068D0F89430DB0560
:1041C800FBD5D0F89430D0F89420DBB222F000422E
:1041D800C0F894205A1E327001220020043B2B7034
:1041E8002368DA6070BD0120FCE7000037B514468B
:1041F8000546002843D0002941D0FEF7FFFB28469A
:10420800E1B2FEF7D5FC2846FFF754FD1D4B984256
:1042180030D91D4B98422FD91C4B984222D940F2D5
:10422800B63440F274431A4A904288BF1C460022B2
:1042380001212846FFF7FAF80021224602232846E2
:104248000091FEF7A0FD044648B906212846FEF76E
:10425800AFFD044618B901212846FEF74EFD204659
:1042680003B030BD0B4B4FF43E749842DFD80022A8
:104278001146DEE7B424FAE74FF4BE74F7E70124E9
:10428800EDE700BF00366E01006CDC0200D8B8050F
:10429800000E270700879303F0B50E46174605461C
:1042A80087B0D8B1072200240323CDE903220121D6
:1042B800CDE9014300942346FEF783FC02212846FA
:1042C800FEF715FC39462846FEF70AFC3246C0219F
:1042D8002846FEF731FC204607B0F0BD0120FBE779
:1042E8002DE9FF410C4616461F460546002840D0DA
:1042F8006B46214A1068516803C39068D16803C3AC
:104308002846E1B2FEF77AFD07F110036B4413F873
:10431800088C4FEA48185FFA88F80CB304AB03EB33
:10432800560313F8104CA40044F0210464B204F0BE
:10433800FD0200212846FFF7AFFF711E284649B24B
:10434800FEF7BAFD424604212846FFF7A5FF791E6D
:10435800284649B2FEF7B9FD002004B0BDE8F08157
:1043680006F110036B4413F8104CA40044F0010448
:10437800DCE70120F1E700BF70B00220F0B50E467F
:104388001746054687B0D8B1072200240223CDE995
:1043980003220121CDE9014300942346FEF711FCD5
:1043A80004212846FEF7A3FB39462846FEF798FB6A
:1043B8003246C0212846FEF7BFFB204607B0F0BDB5
:1043C8000120FBE730B5054685B0A0B100240721E0
:1043D800022390F82520CDE902115200CDE90043CF
:1043E80052B22346FEF736FB21462846FEF727FB46
:1043F800204605B030BD0120FBE730B5054685B045
:1044080090B1072100240223CDE90211CDE9004330
:10441800234690F92620FEF746FB80212846FEF722
:1044280036FB204605B030BD0120FBE7F0B5044659
:1044380087B000283BD090F82330052B34D0033BBD
:10444800012B2ED8012603270023072576B27FB239
:104458001A4601212046CDE90355CDE901570096BA
:10446800FEF7AFFB0022FF212046FEF765FB94F81C
:104478002330052B0FD1002301211A462046CDE910
:104488000355CDE901570096FEF79BFB0022FF215B
:104498002046FEF751FB0020FDF761FD0320FDF7E4
:1044A8005EFD002007B0F0BD03260227CCE70120FF
:1044B800F8E7000030B5044685B000286ED0002922
:1044C8006CD0FEF79BFA23680DF10E020DF10F0177
:1044D80020461D68FFF756FE01212046FEF768FBBF
:1044E8002046FFF7E7FB2E4B05F00105984236D82A
:1044F800142303218DF80E308DF80F300846002361
:10450800B42284F8251084F826100621009020464D
:10451800FEF739FC07212046FEF74AFC0121204618
:10452800FEF77AFC9DF80E102046FEF783FC002269
:104538009DF80F102046FEF789FC01212046FEF762
:10454800DCFB01212046FEF7E6FB2DB9154B1B6865
:1045580003F00303032B1DD1002005B030BD124B1F
:1045680098420BD903F1377303F5D84398420BD916
:1045780007211420082340F23252C2E705210E20F9
:10458800032340F2B632BCE706211120052340F28E
:104598007442B6E72046FFF749FFDDE70120DCE774
:1045A800016CDC0200000C50011C4E0EF0B50446F4
:1045B80085B0002800F09680002900F09380FEF76F
:1045C8001DFA23680DF10E020DF10F0120461E6839
:1045D800FFF7D8FD01212046FEF7EAFA2046FFF74B
:1045E80069FB414B05469842404F06F0010650D8FA
:1045F800142303218DF80E308DF80F30B4220023D8
:10460800009120460621FEF7BEFB07212046FEF753
:10461800CFFB01212046FEF7FFFB9DF80E10204638
:10462800FEF708FC00229DF80F102046FEF70EFC4E
:1046380001212046FEF7C6FB01212046FEF75DFB5F
:1046480001212046FEF767FB2EB994F8273013B9ED
:104658002046FFF7EBFEBD423AD9254B9D423CD997
:104668000622022388253B2684F82630012184F877
:1046780025202046FEF7C2FB324600212046FFF7E0
:104688007DFE2A4604212046FFF778FE002005B06B
:10469800F0BDB8420DD9164B98420FD903F13773C4
:1046A80003F5D84398420ED81421082340F2325219
:1046B800A6E70E21032340F2B632A1E71121052314
:1046C80040F274429CE7172109234FF4BE6297E732
:1046D8000422002308253326C6E7052200230825DF
:1046E8003726C1E70120D2E7016CDC02011C4E0E1F
:1046F80001882A1170B50E461546044686B0F8B1F1
:1047080007220323CDE901230023CDE903220093E7
:104718000121FEF756FA31462046FEF7FCF9022140
:104728002046FEF7E4F929462046FEF7D9F94FF46A
:1047380080326021204606B0BDE87040FEF7FCB923
:1047480006B070BD38B504460122FFF7B3FE204617
:10475800FFF7B0FA154B98421FD9154B98421FD94D
:1047680003F1F47303F5904398421CD942F28F7514
:1047780041F28F730F4A904298BF1D46012120468F
:10478800FEF7D7FA2A4620460021FFF7B3FF01219A
:104798002046FEF733FB002038BD4EF28F75EDE75B
:1047A8004FF28F75EAE740F28F75E7E781FE210A3D
:1047B80001D4650C01882A111FB560B107210323B4
:1047C80090F82520CDE90013013A0023CDE9021124
:1047D80052B2FEF73FF905B05DF804FB1FB560B1B2
:1047E8000721032390F82620CDE90013013A00237E
:1047F800CDE9021152B2FEF756F905B05DF804FB97
:104808008B10A3F14802F0B5D6B2042E49D8022E77
:1048180010D8254D0E2405EB820540F2B222A1EBFB
:1048280086039BB2A3F59073032B3AD8DFE803F015
:10483800091A27201D4D9B003D2440F221321D44BA
:10484800EDE70E2C4FF0080620D14FF47C512F686D
:10485800031BB3407B400B4010447B40001B2B6084
:1048680080B2F0BD0E2C4FF0000612D13F21EEE7CA
:104878000E2C4FF010060ED14FF47C11E7E70E2CEA
:104888004FF018060AD14FF07C51E0E74FF4E06191
:10489800DDE70721DBE74FF4E021D8E74FF0E061DF
:1048A800D5E70020DDE700BF58B000500CEF00400E
:1048B800002A31D02F2816DD3A282DDC0123174A8B
:1048C8002A388340106F11F0200F14BF1843984303
:1048D8001067124A11F0100FD16E14BF0B4321EA72
:1048E8000303D36670472638032815D80C4B11F0FC
:1048F800200F53F8202014BF42F0100222F01002BB
:1049080043F8202053F82020C9064CBF42F0080283
:1049180022F0080243F82020704700BF00B00C5076
:104928005CB00C5038B14FF0A0429368064843F091
:104938000403936070474FF080425368034843F084
:1049480008035360704700BF00300050003000403B
:104958003B28C8BF3C38430152B1064A00201344E3
:1049680033F810208A4202D001301028F8D170475D
:10497800014AF3E75CB50220BCB402202DE9F047F8
:104988001546044618B94FF0FF30BDE8F0873A28BD
:10499800CDBF002701270646A0F13C063846FFF7A1
:1049A800C1FF8046002F00F05E81A4F12600032895
:1049B8000AD8DFF80CC304F18043263B5CF82320B7
:1049C80022F002024CF82320A1F590739BB20B2B26
:1049D80004D82046FFF714FF014625E0A1F59C7393
:1049E8009BB2072B50D84A109C3AA1EB420189B2DE
:1049F800B1F59C7F43D040F23913994240F03A8197
:104A08004FF0080E4FF47C5CA549A4F10E0351F851
:104A1800220003FA0EF3434003EA0C03434041F833
:104A2800223004F5297189B23A462046FFF790FFF3
:104A38000F288146A7DC3A4629462046FFF738FF6B
:104A4800002F40F01981402C40F31681954AE80662
:104A580052F824304FEA093923F4E04323F01803CD
:104A680048BF43F00803A90648BF43F0100309F400
:104A7800E04949EA030342F82430002085E74FF073
:104A8800000E4FF03F0CBFE7A1F5EC739AB2092A6C
:104A980037D80522B3FBF2F3C3EB8332C3EB8202B0
:104AA8000A4492B2A2F5EC7188B2032814D84FF0E8
:104AB8003F0E7D48C90050F823C0A4F10E028A4079
:104AC80082EA0C020EFA01F10A4082EA0C0240F86E
:104AD800232004F25521A6E7B2F5EE7F40F0CA8004
:104AE8003F217248DA00D0F86CC0A4F10E0393405D
:104AF80083EA0C0301FA02F2134083EA0C03C3664B
:104B0800E7E76FF4017A01EB0A0293B2052B28D884
:104B18000323B2FBF3F26FF40179C2EB823302EBA9
:104B280083030B449BB203EB090C1FFA8CFCBCF10A
:104B3800020F00F29F80DB00A3F581535C49A4F1CA
:104B48000E0E083B0EFA03F3DFF878E151F8220065
:104B58005EF82CC0434003EA0C03434041F822307E
:104B6800B7E76FF4F87E01EB0E039AB2092A2AD848
:104B7800B1F5FC7F16D2590813F0010F4D4B4FF0D9
:104B88003F004D4A18BF1A46C9008840D2F800C0F5
:104B9800A4F10E038B4083EA0C03034083EA0C0361
:104BA800136096E707D040F2F913994207D1002124
:104BB8003F20424AEAE710214FF47C10F9E7082128
:104BC8004FF47C50F5E76FF4587C01EB0C039BB273
:104BD800052B3FF629AF03284CD804F18043A1F2F6
:104BE8006232DFF8DCC0263B042A15D8DFE802F081
:104BF800382A033123004FF440524FF0E04A4FF077
:104C0800005EDFF8C490D9F8040020EA0A0040EA00
:104C18000E00C9F8040000E000225CF8230020F42C
:104C2800E04002434CF823205CF8232042F00202C3
:104C38004CF82320F8E64FF440524FF0E04A4FF08A
:104C4800405EDEE74FF400524FF0606A4FF0806E2E
:104C5800D7E74FF400524FF0606A4FF0C06ED0E7CC
:104C68004FF48052D9E7A1F596739BB2072B3FF614
:104C7800DBAEAEE60021D7E606F18046013E58F8E5
:104C8800263005F0300509F00F0945EA090523F03B
:104C98003F031D4345F0400548F82650EDE600BFA8
:104CA80048B0005058AF0C5064B0005000B00050ED
:104CB80070B000507CB0005078B0005080B0005008
:104CC8005CB00C5080B0022000000C503A2838B577
:104CD800044625DD402816DC0025A0F13C012846C5
:104CE800FFF720FE01F18043013B50F823102A46CC
:104CF80021F05F0141F00F0140F823100021204608
:104D0800FFF7D6FD0AE0084A52F8203023F4E043C2
:104D180023F00E0343F4E04342F82030002038BD6E
:104D280001460125DBE700BF58AF0C50054B9A6ED2
:104D380020B142F0200200209A66704722F020023B
:104D4800F9E700BF00A00C5007B5134A134902EB5E
:104D5800C002D1F89C309278022862F30303C1F8AC
:104D68009C300DF1070011D107F03CFB10B10B236B
:104D78008DF80730094A9DF80710D2F8943061F38E
:104D88000303C2F8943003B05DF804FB07F036FB68
:104D98000028EFD00D23EBE79CB0022000A00C50B8
:104DA8004FF0A0430D281A6A0DD842F6F173C3409C
:104DB80013F0010F0CBF012303238340134023FA90
:104DC80000F0C0B270470123F7E70000012803D0C4
:104DD80002280ED0002070474FF0A043DB6A63B171
:104DE80013F001000AD00648C3F3830303FB000055
:104DF80070474FF0A0431B6BF1E71846704700BFA0
:104E080000366E010120FFF7E1BF0220FFF7DEBF89
:104E180000207047234BA1F1B771A1F55851994271
:104E280010B53CD8012802D0022836D0FEE71E4C27
:104E38001E4BD3F89420900758BFD3F894204FF016
:104E480000005CBF42F00202C3F89420D3F894201B
:104E5800D2075EBFD3F8942042F00102C3F8942031
:104E6800134A2368B1FBF2F123F00103236023689E
:104E780023F4005323F03C0343EA810343F48053B3
:104E880043F001032360FDF76AF80A20FDF767F88D
:104E98002368002BFCDA002010BD064CC8E701206F
:104EA800FAE700BF002A75152C00005000B000502A
:104EB80000366E013000005001460120FFF7AABFFE
:104EC80001460220FFF7A6BF4FF0A042D36A002098
:104ED80023F00103D3627047012808D14FF0A043A3
:104EE8001B6A03F00303032B01D1FFF78BBF0148B3
:104EF800704700BF006CDC02021E08BF012208B523
:104F08001046FFF7E9FF012A02D0022A0AD0FEE77D
:104F18004FF0A0435B6ADBB2012BB8BF0123B0FBA3
:104F2800F3F008BD4FF080435B6903F03F03F3E7FC
:104F38004FF0A04310B50D281B6A18D842F6F1723D
:104F4800C24012F0010F0CBF0122032202FA00F442
:104F580011404FF0A04223EA040381400B4313623F
:104F680020B90120FFF7C8FF024B186010BD0122CD
:104F7800ECE700BF544904200028D8BF002008B53A
:104F8800CCBFFF230346002912DB002A43F4E06369
:104F980040EA01200EDA4FF0A0414A6A22EA0303F0
:104FA80003434B620120FFF7A7FF074B186008BDBA
:104FB800002A04DB43F4E04340EA0230EBE7002B2D
:104FC800F0D0FF23E7E700BF5449042070B50C4632
:104FD800194D0646FFF7B8FE2B69FA2023F00403A3
:104FE8002B61FCF7BCFF302C0DD800210846FFF7D9
:104FF8009FFF302004220021B0FBF4F0FFF7BCFF34
:105008000024204670BDFDF7E5FC0C4800EBC60007
:1050180043680B48EB616043FFF74EFF04460028E6
:10502800EFD1012106220846FFF7A6FF03212046FB
:10503800FFF77EFFE4E700BF00B000509CB00220FD
:1050480040420F002DE9F3411D4C1E4F04EBC002F6
:105058003B6B9278054662F317534FEAC0083B63EF
:105068000DF107000E4607F0BDF910B10B238DF8BE
:1050780007309DF8071014F93520FB6C0A4400210D
:1050880062F385030846FB64FFF752FF302E00D910
:10509800FEE7302004220021B0FBF6F0FFF76CFF9A
:1050A800FFF712FFFDF7A2FC4444074B6268DA6180
:1050B8001A6942F004021A6102B0BDE8F08100BF2B
:1050C8009CB0022000A00C5000B0005070B5314ECA
:1050D800054633780C46012B43D9023B012B02D9F4
:1050E8000125284670BD2C4B53F82120FFF78DFE73
:1050F8009042F5D8012905D829462046FFF7A2FF96
:10510800002535E000210846FFF712FF2046FFF78B
:105118001BFEFA20FCF723FFFFF7D6FE302D0DD833
:10512800FDF764FC00210846FFF702FF0422002176
:105138003020B0FBF5F0FFF71FFFE1E7FDF74AFC71
:1051480016486843FFF7B8FE05460028C8D1012174
:1051580006220846FFF710FF03212846FFF7E8FE5E
:10516800CEE7012909D901462046FFF72FFF05465A
:1051780000203470FCF7F3FEB3E78B4203D14FF005
:10518800FF321146D4E790210220FFF71FFF0028C5
:10519800A6D1B1E7092C04208CB0022040420F00B0
:1051A800134A1368590721D4116800280CBF01233A
:1051B8004FF0FF3341F0040111604FF0804243F497
:1051C8008013136011680029FCD0094A116CC806C5
:1051D80006D5116C41F002011164116CC906FCD4AA
:1051E8004FF080410A6822EA03030B60704700BF52
:1051F80000000440F0280DD8902807D8302807D898
:10520800182894BF00210121FFF760BF0321FBE7A5
:105218000221F9E701207047F0B505460138C0B210
:10522800FD2808D800240B4F57F8040B067826B938
:105238000134062CF8D100200BE0AE4205D14678A7
:10524800964202D186788E4201D00830EEE703B14B
:105258001C70F0BD0C2C042007B50DF10703FFF7F7
:10526800DBFF064B40B14FF405719DF8072001FBA9
:10527800023003B05DF804FB1846FAE7442E042018
:1052880008B50023FFF7C8FF08B1406808BD4FF410
:105298000020FBE708B50023FFF7BEFF10B1C07878
:1052A80000F0010008BD0000F0B505460138C0B2A5
:1052B800FD2808D800240B4F57F8040B067826B9A8
:1052C8000134062CF8D100200BE0AE4205D1467817
:1052D800964202D186788E4201D00830EEE703B1BB
:1052E8001C70F0BDBC3A042007B50DF10703FFF7A9
:1052F800DBFF30B14FF405729DF80730024802FB1E
:10530800030003B05DF804FBD43C04204FF0FF30E9
:105318007047000008B5FFF7F9FF031EA5BF4FF45B
:1053280005720248002002FB030008BDD43C04209B
:1053380008B50023FFF7B8FF08B1406808BD4FF073
:105348008060FBE708B50023FFF7AEFF10B1C07817
:10535800C0F3400008BD08B50023FFF7A5FF10B152
:10536800C078C0F3810008BD08B50023FFF79CFF93
:1053780008B1C078000908BDF7B5214B06461D687D
:10538800204B043D1F68002300F11A0EAB4202DBDC
:10539800002003B0F0BD318B21B3728B3AB3B94210
:1053A80001D2974205D9184B1B680BB1174898478B
:1053B800FEE701331C46AC4201DB0436E6E73EF863
:1053C80024C0BCF1000FF8D0624509D10E4B1D680E
:1053D8002DB1063430F824300D480092A847FEE776
:1053E8000134E8E700EB8302528B002AD0D0064A4A
:1053F800146824B100EB83035A8B0648A047FEE7E4
:10540800ECCB0420F0CB0420DCCB04202CAA022017
:1054180049AA022096AA02204FF0FF3210B5074C85
:105428000144884201D1D04310BD10F8013B5340DC
:10543800DBB254F8233083EA1222F2E7BCB0022030
:10544800F8B5144B01461E68B0421ED238B1124B53
:1054580000221C68114B043C1D46944200DCF8BD38
:105468001F8B8F420AD105EB82056A8B96420FDDAE
:105478000B4B1B680BB10B489847FEE717B95F8BBE
:10548800002FECD001320433E7E74FF0FF30E6E7B6
:105498001046E4E7F0CB0420ECCB0420F4CB042046
:1054A800DCCB0420B4AA02202DE9F04F0746884639
:1054B80087B000294BD10025284607B0BDE8F08FFA
:1054C8000022CDE90122264E009138462146336854
:1054D800FBF756FB002832DD326813685B4523D1A1
:1054E8005668C6F31E06AE4215DD10461021059219
:1054F800FFF792FF059A1369834213D1C8F8004059
:1055080035460134DAF80010D9F80030B3FBF1F36E
:10551800A342D5D8D0E7134B1B681BB132462946A6
:10552800114898472E46EBE75A1CC5D00D4A156816
:10553800002DC0D0224639460C48A847BBE7094B86
:105548001B68002BEED0224639460948E9E70024BB
:10555800DFF820A02546DFF82090DFF820B0D1E75B
:10556800E0CB0420DCCB0420D3AA022000AB02202D
:1055780031AB02204C490420504904204D42665367
:105588002DE9F04F01280746DFF85CB187B00ADD46
:10559800DBF800301BB9002007B0BDE8F08F0146EA
:1055A80047489847F7E7DFF84481002863D1B8F8FF
:1055B8000060B8F80250002E62D0304604A9FFF708
:1055C80073FF8146002D5DD0284605A9FFF76CFFC3
:1055D8000446DBF800A0BAF1000F05D02346324696
:1055E800494638480095D047A145D4D04FF000022D
:1055F80098BF2E4607F1080394BF28F8135028F8DF
:105608001360CDE90122304B88BFDDF810A01B687C
:1056180098BFDDF814A0DFF8D880009351463046D3
:10562800D8F8003088BF4C46FBF7AAFA0028DBF808
:10563800005038DDD8F80080244BD8F800209A4272
:105648002BD110214046FFF7E7FED8F8102001467D
:1056580082421ED1D8F80410C1F31E01A14213D111
:105668004FF402721A48414602FB070005F000F9A0
:105678000DBB204690E7B8F80460B8F806509AE7E2
:10568800B1469FE72C46A4E715B122461148A84722
:10569800FEE70DB11048A847FEE71DB15246314656
:1056A8000E48A847FEE7002D3FF475AF5246314635
:1056B8000B48A8476FE721460A48A847D9E700BF23
:1056C8004FAB022063AB02204C4904204D42665385
:1056D800F4CB042089AB0220D3AB0220E5AB022037
:1056E8001AAC022046AC0220DCCB042004D00420F3
:1056F800E0CB04202DE9F04305460024134F144E57
:10570800DFF8508085B039683368B3FBF1F3A34202
:1057180002D84FF0FF3415E00022CDE90122DFF86E
:105728003890009128462146D9F80030FBF728FA2E
:1057380020B1D9F800301B68434501D10134E2E7B4
:105748000133FBD1204605B0BDE8F0834C49042065
:10575800504904204D426653E0CB0420F0B504467E
:1057680085B080B21F460D461646FFF769FE431CFA
:1057780008D10A4B1B6813B12146094898470020F5
:1057880005B0F0BD0C9B324602930B9B2946019352
:105798000A9B00933B46FBF7F3F9F1E7DCCB0420C7
:1057A80059AC0220014B1868704700BF4C490420CF
:1057B800F7B5044608460E46FFF79CFF051E25DB95
:1057C800134B1A68134B1B68B3FBF2F39D421DDAA7
:1057D800114FFF21386805F031F864420F4904F48D
:1057E80002744FF402723868214405F041F83868B1
:1057F80060B102680A4B9A4208D1FFF7BDFD002349
:105808000093294630463A68FFF7CCFF03B0F0BD55
:105818004C49042050490420E0CB0420F4CB042058
:105828004D426653002070472DE9F04F7D4C7E4B6A
:10583800226885B09A4200F0EF80D4F808229A4294
:1058480000F0EA802360012363600023DFF81092F0
:105858002381D9F80030754F043BDFF808A2638133
:105868003B68DAF80050013B714EA381E5813B6843
:105878009D4210DB0025A846DFF8B4B1DAF80060D5
:10588800B54220DB6389002B4DD1694B1B680BB1F6
:1058980068489847FEE72846FBF7D2F968B92846D2
:1058A800FFF7C0FF38B1336813B1294662489847FB
:1058B8006389013B63810135D9E73368002BF7D051
:1058C80029465E48F3E72846FBF7BAF948B3DBF800
:1058D800003013B129465A489847A089FBF7B0F918
:1058E800A3890646013BA3816389013B9BB263817F
:1058F80008B1002BF1D1DBF800301BB14246294634
:105908005048984746B9A28908F1060324F823505D
:10591800013204EB83035A80238908F1010801331B
:1059280023810135AAE710213E48FFF775FDD9F814
:1059380000102061043989004348FFF76DFD4FF4DA
:10594800027238496061881804F092FF94F80F32A7
:10595800102143F0800384F80F323C48FFF75CFDC8
:10596800C4F818020024DFF80091DFF800813B68D2
:105978009E4208DB032C30DC2D4B1B6813B12146FB
:1059880033489847FEE73046FBF75AF9054610BBFF
:10599800D9F800A0FF215246D8F8000004F04EFFC5
:1059A800CDE90155CDF800A0D8F800302A4629469F
:1059B8003046FBF7E5F8D9F80030984209D1D8F815
:1059C80000301B68013301BF224B221D23F81260EF
:1059D8000134032C01DC0136C9E700251D4C0020E9
:1059E8002189FFF7E5FE238901206189238023822D
:1059F8002581FFF7DDFE63896581A3806382A38922
:105A08006380E389E3800A4B1B680BB1124898470F
:105A1800002005B0BDE8F08F054B1B680BB10F489F
:105A28009847FEE7F4CB04204D426653E8CB0420A8
:105A3800DCCB0420EEAC02207CAC02209EAC022021
:105A4800BBAC0220DAAC02200CCC0420FCCD042034
:105A580008AD022004D004202FAD02204BAD022057
:105A6800ECCB0420F0CB04204C490420E0CB0420EC
:105A78002DE9F04F87B0002900F02981954B1A686D
:105A8800012A08D1944B1B680BB194489847002011
:105A980007B0BDE8F08F01221A60914B1C6804B969
:105AA800FEE7DFF87CA2DAF8002002B9FEE7B0FBD7
:105AB800F4F44FF000088B4ADFF868B26309DFF8A6
:105AC80068921360CBF80040E41A874B1822C9F893
