:020000041221C7
:108000000020002011F3261231DF2512596D0020C7
:108010009B6D00205BF326125BF326125BF32612A6
:108020000000000000000000000000005BF32612CA
:108030005BF32612000000007D6C0020D5A62912FB
:1080400029F724125BF3261215F8281227F82812B4
:1080500039F828124BF828125DF828126FF8281208
:1080600081F8281293F828125BF32612E9E8261209
:108070005BF326125BF326125BF326125BF32612E8
:108080005BF326125BF326125BF326125BF32612D8
:10809000C10429125BF326125BF326125BF326124E
:1080A0005BF326125BF326125BF326125BF32612B8
:1080B0005BF326125BF326125BF326125BF32612A8
:1080C0005BF326125BF326125BF326125BF3261298
:1080D0005BF326125BF326125BF326125BF3261288
:1080E0005BF326125BF326125BF326125BF3261278
:1080F0005BF326125BF32612911029125BF3261212
:108100005BF32612AD31291285F7281297F7281252
:10811000A9F72812BBF72812CDF72812DFF728128B
:10812000F1F7281203F82812D9EC2412910B291226
:10813000B11D2912A922291249922912895A2912FC
:108140005BF326125BF326125BF3261231A529128C
:108150005BF326125BF326125BF326125BF3261207
:10816000791029125BF326125BF326125BF32612B9
:10817000AF22291255362912B52229125BF3261295
:108180005BF326125BF326125BF326125BF32612D7
:108190004D0629125BF326125BF326125BF32612BF
:1081A0005BF32612619229125BF326125BF326120F
:1081B0005BF326125BF326125BF326125BF32612A7
:1081C0005BF326125BF326125BF32612000000001D
:1081D000000000000000000000000000000000009F
:1081E000000000000000000000000000000000008F
:1081F000000000000000000000000000000000007F
:04820000000000007A
:1082040038B50C4604F022F805464FF0905000F0C3
:10821400F4FC4F4804F018F8032C00F29280DFE8D5
:1082240004F0022D5A75F02004F0A9FE28B140F2A2
:108234005F724849484807F09FF9484804F048FBF2
:1082440028B140F261724349434807F095F902218D
:10825400042004F087FB022005F0F2F803F0F0FF9D
:108264000620022104F07EFB052005F0EFF803F060
:1082740035FF2846BDE8384003F0ECBF0021042058
:1082840004F070FB0021062004F06CFB04F02CFBCE
:10829400902004F074FE28B140F296722D492E48C5
:1082A40007F06AF92E4804F013FB28B14FF4F36287
:1082B4002849294807F060F90221042004F052FB00
:1082C400022005F0BDF803F0BBFF0620022104F0F4
:1082D40049FB0420C9E70021042004F043FB0021EA
:1082E400062004F03FFB04F0FFFA302004F047FEC0
:1082F40028B140F2C7721749174807F03DF9012029
:1083040005F09EF803F09CFF0120AEE70021042055
:1083140004F028FB0021062004F024FB04F0E4FA16
:10832400182004F02CFE28B140F2F67209490A48DC
:1083340007F022F9022005F083F803F081FF022000
:1083440093E740F614020349064807F015F990E74D
:10835400C6962E12812A3012CD962E1200882A112A
:10836400001C4E0EDD082F1208B507F0EDF8D0B949
:1083740007F01AF9B8B10C4B1B78A3B14FF0905029
:1083840000F03BFC094803F05FFFBFF34F8FBFF3DE
:108394006F8F074B1A6942F004021A6130BF1A69E1
:1083A40022F004021A6108BDB8800120C6962E127C
:1083B40000ED00E008B50C4800F0CAF928B140F21D
:1083C40071120A490A4807F0D7F8032209490A48F2
:1083D40005F05EFE38B1BDE8084040F2751203496D
:1083E400034807F0C9B808BDF09F00209C2A30124A
:1083F400DE962E1214A1002000000A5008B50C4885
:1084040000F080F928B140F27D120A490A4807F0C9
:10841400B3F8032209490A4805F012FE38B1BDE851
:10842400084040F281120349034807F0A5B808BD8B
:10843400F09F00208E2A3012DE962E1214A1002006
:1084440000000A502DE9F04F89B01822044600219B
:1084540002A806F0BDFF674B9A6E0023C2F30952CF
:1084640000920193002C00F0A980634904F5EA33DB
:10847400BF338B4203D9012009B0BDE8F08F002C33
:1084840000F39E806FF016056FF02F0B6FF0480A13
:108494006FF064096FF081086FF0A00E6FF4927CA6
:1084A4006FF0E3076FF49870544E5549554B64428E
:1084B400ADF81C1042F21071ADF81E30B4FBF1F3AC
:1084C400ADF81A00581EADF81860C6B20A2E01FBAA
:1084D4001344ADF80850ADF80AB0ADF80CA0ADF8EF
:1084E4000E90ADF81080ADF812E0ADF814C0ADF800
:1084F400167078D808AD05EB400005EB430330F95E
:10850400180C33F9183C1B1A634393FBF1F303442F
:10851400134440F2FE3293420093ACD804226946DD
:10852400032007F015F80028A5D0042203200DEB42
:10853400020106F0BDFF00289DD0DDE900329A4219
:1085440099D103F083FE0546002004F02DF9064678
:1085540004F05CF9804604F05CF9264A0746546F3F
:1085640014F0010406D1536F3C2043F00103536718
:1085740005F030FF0021084604F0F4F9009800F0FB
:108584000DF9282005F026FF04F0A6F904F0ACF953
:10859400404604F099F9384604F09AF9002031462F
:1085A40004F0E0F9002005F015FF24B9114A536FD7
:1085B40023F001035367284603F04CFE00205BE7D9
:1085C40016254FF02B0B4FF03F0A4FF052094FF096
:1085D40064084FF0750E4FF0860C9527A526B3203E
:1085E400C121CE2364E714FB05F494FBF1F4A31832
:1085F4008FE700BF00A00C507EA90300F6FEFFFF2A
:10860400A4FEFFFF76FEFFFF2DE9F341364B9B6E80
:10861400C3F30953B3F5E57F009353D04FF4E573E7
:10862400042269460320009306F092FF002857D0E5
:10863400042203200DEB020106F03AFF00284FD07C
:10864400DDE900329A424BD103F000FE05460020DA
:1086540004F0AAF8064604F0D9F8804604F0D9F8E4
:10866400214A0746546F14F0010406D1536F3C208D
:1086740043F00103536705F0ADFE0021084604F002
:1086840071F9009800F08AF8282005F0A3FE04F0A0
:1086940023F904F029F9404604F016F9384604F0A9
:1086A40017F90020314604F05DF9002005F092FE30
:1086B40024B90D4A536F23F001035367284603F08E
:1086C400C9FD0BE0042203200DEB020106F0F0FECD
:1086D4000028A3D0DDE900329A429FD1002000E0B7
:1086E400012002B0BDE8F08100A00C50014B43F81A
:1086F4002010704730B00C50014B53F820007047E5
:1087040030B00C5010B5044620B940F68D010B482A
:1087140006F03EFF22460A4B0A4953F8040B8B42EB
:1087240042F8040BF9D1084B084AE83453F8041B07
:10873400934244F8041BF9D1002010BDB6840020F4
:1087440000300050E830005048B0005084B0005071
:1087540010B5044620B940F6B5010B4806F018FFE1
:1087640022460A4B0A4952F8040B43F8040B8B4285
:10877400F9D1084B084AE83454F8041B43F8041BA5
:108784009342F9D1002010BDB6840020003000507F
:10879400E830005048B0005084B00050024A936E54
:1087A40060F31D539366704700A00C5038B550B168
:1087B400184C6368DBB2072B01D1002038BD636815
:1087C400DBB20F2BF9D0134C6368DBB2072BF4D068
:1087D4006368DBB20F2BF0D0102818D80E4BC340BF
:1087E400DB0714D500294FF021040CBF20210121FF
:1087F4000A4D8440EB6D814023EA04030B43EB658F
:10880400002ADAD041F2883005F0E4FDD5E70120F2
:10881400D4E700BF00B000500101010000A00C50DB
:1088240070B5EFF31083012585F310881F4E0220E5
:1088340005F08CFC284604F03DFAB36A2A4623F07E
:108844000F030021B3620820FFF7B0FF4FF4FA5082
:1088540005F0E2FD002003F0A7FF044628B905F067
:1088640047FD2946204604F07DF8114B002073672C
:10887400FFF742FF014620F07F4020F00F0028B9A7
:1088840041F4A04141F05001FFF730FF074C642050
:10889400A368E360236823F00203236005F028FE45
:1088A400236843F002032360FEE700BF00A00C50DE
:1088B40015C0500A38B5EFF31083012585F31088ED
:1088C400022005F043FC284604F0F4F92A4600216E
:1088D4000820FFF76BFF4FF4FA5005F09DFD0020D0
:1088E40003F062FF044628B905F002FD294620463C
:1088F40004F038F8104B114C00206367FFF7FCFEBE
:10890400014620F07F4020F00F0028B941F4A04137
:1089140041F05001FFF7EAFE23685B0706D52368A0
:10892400074823F00403236005F054FD034A136849
:1089340043F004031360FEE715C0500A00A00C5076
:10894400A0860100044B1A7822B118B1DB780370B9
:10895400002070470120704701A20020044B1A78C0
:1089640022B118B15B7B037000207047012070476F
:1089740001A2002003280ED8084A52F8203029B159
:1089840043F0060342F820300020704723F006032A
:1089940043F00403F6E70120704700BF5CB00C50BD
:1089A40003289DBF034B53F82000C0F340204FF031
:1089B400FF3070475CB00C5003280CD8074B53F8B9
:1089C4002020920707D553F8202061F3000243F8D2
:1089D4002020002070470120704700BF5CB00C507D
:1089E40059B1032809D8064B53F82030002013F05E
:1089F400020318BF01230B7070470120704700BFAA
:108A04005CB00C50F8B50746002003F0CDFE002101
:108A14000446084603F0A6FF03F0F8FE064603F0FA
:108A2400F8FE05463846FFF7B9FE002005F0D2FCF3
:108A3400282005F0CFFC03F04FFF03F055FF30462C
:108A440003F042FF284603F043FF2146002003F0D1
:108A540089FFBDE8F840002005F0BCBC10B52948EA
:108A640006F012FD04F0B4FD00210122084604F0D2
:108A74007FFF01220021252004F07AFF22212248D1
:108A840005F0E6FBC1B2002006F092FD0021084685
:108A940006F092FD4FF005121C4B6A21C3F88C209E
:108AA40026200123102205F025FE2A2404F1440186
:108AB40020460123102289B2013405F01BFE3B2C11
:108AC400F4D1124AD36D23F0011323F48073D365D8
:108AD4004FF00F13C2F88C3003F0B8FB0C4806F0CB
:108AE400D3FC002208201146FFF760FE0022114645
:108AF4001046FFF75BFEFFF793FEBDE81040054804
:108B040006F0C2BC0AAF2F1200000A5000A00C509D
:108B14001BAF2F122DAF2F1270B590F826300446DC
:108B24000E4673B103F092FB0546204602F01CFC8E
:108B34003146204602F0D1FB2846BDE8704003F0E0
:108B440089BB70BD03F020BA03F01EBA10B50C4601
:108B540003F01AFA20B12146BDE81040FFF7DCBF4C
:108B640010BD000008B503F0DFF90A4B1B787BB198
:108B740000280DDB084B03EB401006F07DFC38B1F8
:108B8400BDE808404FF4EA720449054806F0F4BC15
:108B940008BD00BF84880120B8130220393C00209E
:108BA4005385002010B5044603F0D4F908B103F04E
:108BB400EAF9044B186803F04DFB2046BDE8104069
:108BC400FFF7D0BFB413022008B503F0DDF918B1E4
:108BD400BDE8084002F0DEBA08BD08B503F0D4F9D8
:108BE40038B190F823302BB990F824304FF48050EA
:108BF400984008BD4FF40030FBE708B503F0C4F912
:108C040018B1BDE8084002F0AFBB08BD034B1B78A8
:108C140043FA00F000F00100704700BFB0130220D7
:108C240010B503F081F90F4B04461B78C3B100283B
:108C340016DBC0B2FFF7EAFF90B14FF0FF3006F049
:108C44006BFC0146084800EB441006F041FC38B1C7
:108C5400BDE810404FF4E1720449054806F08CBCAD
:108C640010BD00BF84880120B8130220493C0020B5
:108C74005385002010B50446FFF7D2FF03F0E6FA4F
:108C8400054B1860204603F065F918B1BDE81040A3
:108C940003F078B910BD00BFB41302202DE9F84FDA
:108CA40007468A46164603F06FF9044600286FD03B
:108CB400002E47D090F82330002B69D1C36A3D467B
:108CC400002B5FD132463946504606F0E1FB39E0CD
:108CD4002069FFF7CFFF03F0B9FAE36A07460120E2
:108CE4009847594623688029A8BF8021BBF1030F08
:108CF400C3F8848004DD4AEA05039B072A4624D08E
:108D040008460AF1FF332A18954236D12268824474
:108D14001368002023F0010313602368ABEB010BFD
:108D2400C3F884902268136843F001031360E36A74
:108D34009847384603F08EFA2069FFF733FFBBF1FA
:108D4400000FC5DC3046BDE8F88FAAF1040055F8E1
:108D5400043B40F8043F531B0B44032BF7DC6FF038
:108D640003008B08013B4343043208180AF1040A48
:108D74001844D51AAAEB030AC3E715F801CB03F884
:108D840001CFC1E7B3464FF6FF784FF0FF09D6E7AE
:108D94000026D7E72DE9F04F85B081460F4693466C
:108DA40003F0F2F8044620B90026304605B0BDE8C9
:108DB400F08FBBF1000FF7D090F82330002BF3D1E4
:108DC40087EA0903DA0001D4FB0006D47B1E5B4466
:108DD4007B40B3F5801FC0F08E80584606F048FBF8
:108DE40002900028E0D039465A4606F051FB029F13
:108DF40025690021A945204634BF4D46A9EB050548
:108E0400FFF78AFE5946384606F0E2FB94F82460E0
:108E1400002E73D015F0010670D02069FFF72AFFE9
:108E24003A4629460123204602F0F5F82069FFF767
:108E3400B9FE0126013501370BF1FF38B8F1000FF7
:108E44002ADD4FF4807294F824309A4002F1FF3AFC
:108E54000AEA050ABAF1000F019267DDA2EB0A0AD9
:108E6400C245A8BFC2462069002B49D01AF0010FA1
:108E740046D0FFF7FFFE3A4629462AF00103204672
:108E840001F0E4FF00233A182918204602F0C3F841
:108E94002069FFF787FE564401212046FFF73CFE78
:108EA400BBF1000F1FDD09F01F035B44BFF34F8FBD
:108EB4004A4648494B44C1F85C222032981A00289B
:108EC400F9DCBFF34F8FBFF36F8FBFF34F8FC1F840
:108ED400589209F12009A3EB0902002AF7DCBFF339
:108EE4004F8FBFF36F8F029B002B3FF45EAF18468A
:108EF40006F0F6FA59E70023029379E7D8469DE78E
:108F0400FFF7B8FE53463A462946204601F09EFF35
:108F140003902069FFF746FE039B9A4501D0002683
:108F2400BAE755445744A8EB0A085644AA467B1BA3
:108F34000393039B03EB0A07019B434529DD751B40
:108F4400B8F1000F05EB0A06A6DD94F82430206979
:108F540083B318F0010F2DD0FFF78CFE51463A462B
:108F640028F00103204601F071FF05462069FFF750
:108F740019FEAA4420693D44FFF77CFE00232A46DB
:108F84005146204602F047F82069FFF70BFE46449D
:108F940082E72069FFF76EFE5146019B3A46204660
:108FA40001F054FF2069FFF7FDFD019B9A44A8EBF3
:108FB4000308BEE7FFF75EFE43463A4651462046A5
:108FC40001F044FF05462069FFF7ECFDA845A6D152
:108FD400DDE700BF00ED00E02DE9F84F06460F463F
:108FE40002F0D2FF0546002800F0C180002F00F0F7
:108FF400BE8090F82330002B40F0BB804069B84617
:10900400B84238D32B693BD12869FFF733FE0021DE
:109014002846FFF781FD284602F068F8012104463E
:109024002846FFF779FD2869FFF7BCFD002F1DDDF9
:1090340006F01F034344BFF34F8F32464E49334477
:10904400C1F85C222032981A0028F9DCBFF34F8F54
:10905400BFF36F8FBFF34F8FC1F8586220369A1B4E
:10906400002AF9DCBFF34F8FBFF36F8F201E18BFA8
:109074000120BDE8F88F0028FBD007468046C3E7EF
:109084004FF4805A9E4234BFB146A6EB030995F8CB
:1090940024300AFA03F3591E11EA090F0BD0C8222F
:1090A4003649374806F068FA4FF0FF340121284664
:1090B400FFF732FDBAE7394001D0CE22F0E77C1E3B
:1090C4005A421C44284609EA020914404FF4803BE2
:1090D400FFF722FD95F824300BFA03F2511E11EA32
:1090E400090F07D1A24205D84FF4803202FA03F1E6
:1090F4008C420CD20AFA03F2A24203D8013A12EAD1
:10910400090F2FD0003C18BF01246442CEE7286920
:10911400FFF7B0FD4946284601F0C1FF2869FFF773
:1091240041FD4FF4803295F8243002FA03F1641AB9
:109134008944DBE72869FFF79DFD4946284601F08D
:1091440087FF2869FFF72EFD95F824300AFA03F209
:109154009144A41A0BFA03F2511E11EA090F01D12A
:109164009442B7D20AFA03F39C42E3D2CAE701203D
:109174007FE700207DE700BF00ED00E0283C0020F1
:109184005F850020F7B5154D2C781CBB144B6F463A
:109194009A8818689B79ADF804208DF80630009001
:1091A40002F0C0FF01220F4B0F4E28701A70E2B27A
:1091B4001046FFF72BFD40B131328DF80520002316
:1091C40001223946304606F0E7F90134052C06F150
:1091D4002006ECD1287803B0F0BD00BFB013022004
:1091E4006185002084880120B813022008B5FFF7A8
:1091F400C9FF002008BD000038B50024084DE0B2C6
:10920400FFF704FD10B1284606F0BAF90134052C25
:1092140005F12005F3D10020024B187038BD00BFC2
:10922400B8130220B013022072745F6E6F725F6510
:10923400726173655F726F6D0072745F666C6173E7
:10924400685F756E6C6F636B0072745F666C6173DC
:10925400685F6C6F636B0000F0B505460138C0B2FF
:10926400FD2808D800240B4F57F8040B067826B9BC
:109274000134062CF8D100200BE0AE4205D146782B
:10928400964202D186788E4201D00830EEE703B1CF
:109294001C70F0BDE83C002007B50DF10703FFF793
:1092A400DBFF064B40B14FF405719DF8072001FB2D
:1092B400023003B05DF804FB1846FAE7203F0020B3
:1092C40008B50023FFF7C8FF08B1406808BD4FF494
:1092D4000020FBE708B50023FFF7BEFF10B1C078FC
:1092E40000F0010008BD0000603E0020B03D0020F9
:1092F400783D0020583D0020283D0020003D0020FE
:10930400C225390000000002C22537000000800099
:10931400C22019010000000225701800000000019D
:1093240000000000000000002041190000000002BD
:109334002040190000000002204319000000000230
:10934400852019010000000285201A010000000494
:109354000000000000000000C860190000000002C6
:109364000B40190000000002C84019000000000270
:109374000000000000000000EF601900000000027F
:10938400EF70190100000002E5421900000000021C
:10939400EF401900000000026849190000000002B3
:1093A4005E40190000000002000000000000000000
:1093B40085601601000040008560170100008000F0
:1093C4008560180100000001856518010000000196
:1093D400856318010000000185201701000080004A
:1093E40085201801000000012570160000004000CF
:1093F400EF60180000000001EF40180000000001B9
:109404000B601800000000015E501800000000010D
:10941400A128180000000001C84318010000000141
:10942400C840180000000001C84017000000800078
:109434002040170100008000CD60180000000001EA
:10944400B340170100008000B34016010000400043
:10945400B3601400000010000000000000000000D1
:1094640085601501000020008560140100001000D3
:109474008560130000000800C8601400000010009C
:10948400C860150000002000C860160000004000FD
:10949400C860170000008000C860180000000001C8
:1094A4000B40170000008000F84218000000000183
:1094B4005E701700000080005E401800000000018C
:1094C400EF60160000004000204018010000000179
:1094D4002041180000000001205018000000000185
:1094E400EB60130000001000EB601400000010009B
:1094F4001C401800000000016840170000008000B4
:1095040068401800000000010B4018000000000132
:10951400B34018010000000100000000000000003A
:109524000085601500000300000000010010000029
:10953400060000000000000001040000000000001C
:10954400000105000100000000000101010100000C
:109554000000000100000000000000000003000102
:109564000000000201010B00010800000201013BA0
:1095740000020800000201016B0003080000020160
:1095840001BB0002000002020201EB00030400031D
:109594000203019F00010000000000010000000020
:1095A40000000000000000000000000000000000B7
:1095B40000000000000000000000000000000000A7
:1095C4000000000000000000000000000000000097
:1095D4000000990000000000000001660000000087
:1095E40000000001350001000000000001500000EF
:1095F400000000000001020101000000020101322C
:10960400010300000002010100000000000000004E
:1096140000000000000000000000810000000000C5
:1096240002010120000000000002010152000000BC
:109634000000020101D800000000000201016000E6
:109644000000000000000100000000000000000015
:109654000000000000000000000000000000000006
:1096640000000000000000000000000000000000F6
:1096740000000000000000000000000000000000E6
:1096840000000000000000000000000000000000D6
:1096940000000000000000000000000000000000C6
:1096A40000000000000000000000000000000000B6
:1096B40000000000000000000000000000000000A6
:1096C4000000000000000000000000000000000096
:1096D4000000000000000000000000000000000086
:1096E4000000000000000000004B00010800000220
:1096F40001014800010800000201014201010000CB
:1097040000020101440000000000020101B9000050
:10971400000000000001AB0000000000000001EDAB
:1097240000070700070207015A00010800000201B0
:109734000100000000856016000003000000000125
:1097440000100000060000000000000001040000FA
:1097540000000000000105000100000000000101FC
:1097640001010000000000010000000000000000F2
:10977400000300010000000201010B0001080000C9
:109784000201013B00020800000201016B00030812
:109794000000020101BB0002000002020201EB0012
:1097A400030400030203019F000100000000000104
:1097B40000000000000000000000000000000000A5
:1097C4000000000000000000000000000000000095
:1097D4000000000000000000000000000000000085
:1097E4000000000000009900000000000000016675
:1097F400000000000000000135000100000000002E
:1098040001500000000000000001020101000000FE
:109814000201013201030000000201010000000006
:1098240000000000000000000000000000008100B3
:1098340000000000020101200000000000020101FC
:10984400520000000000020101D8000000000002E4
:1098540001016000000000000000010000000000A1
:1098640000000000000000000000000000000000F4
:1098740000000000000000000000000000000000E4
:1098840000000000000000000000000000000000D4
:1098940000000000000000000000000000000000C4
:1098A40000000000000000000000000000000000B4
:1098B40000000000000000000000000000000000A4
:1098C4000000000000000031010100000000000160
:1098D4000000000000000000000000000000000084
:1098E4000000000000000000000000000000000074
:1098F400000000000000000000000000004B000118
:1099040008000002010148000108000002010142B0
:1099140001010000000201014400000000000201F6
:1099240001B90000000000000001AB0000000000CD
:10993400000001ED00070700070207015A000108B3
:10994400000002010100000000EF601900000300A4
:1099540000000001001000000600000000000000EC
:1099640001040000000000000001050001000000E7
:1099740000000101010100000000000100000000DE
:1099840000000000000300010000000201010B00C0
:10999400010800000201013B00020800000201016D
:1099A4006B0003080000020101BB00020000020278
:1099B4000201EB00030400030203019F0001000005
:1099C4000000000100000000000000000000000092
:1099D4000000000000000000000000000000000083
:1099E4000000000000000000000000000000000073
:1099F40000000000000000000000990000000000CA
:109A040000000166000000000000000135000100B4
:109A140000000000015000000000000000010201ED
:109A240001000000020101320103000000020101F3
:109A3400C80001000000000001C501010000000091
:109A4400000181000000000002010120000000006C
:109A540000020101520000000000020101D80000D0
:109A64000000000201016000000000000000011578
:109A740000010000000000011101010000000000CD
:109A840001B70000000000000001E9000000000030
:109A94000000011300010000000301010C00010893
:109AA40000000301016C0003080000030101EC0045
:109AB4000304000303030112010100000003010178
:109AC4003401030000000301012100000000000331
:109AD4000101DC000000000003010100000000009F
:109AE4000000000000000000000000000000000072
:109AF4000000000000000000000000000000000062
:109B04000000000000000000000000000000000051
:109B1400004B000108000003010148000108000097
:109B2400030101420101000000030101440000009F
:109B34000000030101B90000000000000001AB00B7
:109B440000000000000001ED000707000703070103
:109B54005A000108000002010100000000C8601959
:109B640000000300000000010010000006000000D7
:109B740000000000010400000000000000010500D6
:109B840001000000000001010101000000000001CB
:109B940000000000000000000003000100000002BB
:109BA40001010B00010800000201013B0002080052
:109BB400000201016B0003080000020101BB000266
:109BC400000002020201EB00030400030203019FF0
:109BD400000100000000000100000000000000007F
:109BE4000000000000000000000000000000000071
:109BF4000000000000000000000000000000000061
:109C040000000000000000000000000000009900B7
:109C140000000000000001660000000000000001D8
:109C240035000100000000000150000000000000A9
:109C340000010201010000000201013201030000E1
:109C440000020101C80001000000000001C501017B
:109C5400000000000001810000000000020101205A
:109C64000000000000020101520000000000020197
:109C740001D80000000000020101600000000000A3
:109C840000000115000100000000000111010100A5
:109C94000000000001B70000000000000001E9001E
:109CA40000000000000001030001000000030101A6
:109CB4000B00010800000301016B0003080000030E
:109CC4000101EB000304000303030102010100008E
:109CD4000003010132010300000003010120000020
:109CE400000000030101D80000000000030101008E
:109CF4000000000000000000000000000000000060
:109D0400000000000000000000000000000000004F
:109D1400000000000000000000000000000000003F
:109D240000000000004B000108000003010148008E
:109D340001080000030101420101000000030101C8
:109D4400440000000000030101B90000000000000D
:109D54000001AB0000000000000001000000000052
:109D6400000000005A000108000002010100000088
:109D74000020411900000300000000010010000051
:109D840006000000000000000104000000000000C4
:109D940000010500010000000000010101010000B4
:109DA40000000001000000000000000000030001AA
:109DB4000000000201010B00010800000201013B48
:109DC40000020800000201016B0003080000020108
:109DD40001BB0002000002020201EB0003040003C5
:109DE4000203019F000100000000000100000000C8
:109DF400000000000000000000000000000000005F
:109E0400000000000000000000000000000000004E
:109E1400000000000000000000000000000000003E
:109E2400000099000000000000000166000000002E
:109E34000000000135000100000000000150000096
:109E440000000000000102010100000002010132D3
:109E54000103000000020101C8000100000000002D
:109E640001C50101000000000001810000000000A4
:109E74000201012000000000000201015200000064
:109E84000000020101D8000000000002010160008E
:109E940000000000000001150001000000000001A6
:109EA400110101000000000001B7000000000000E3
:109EB4000001E9000000000000000113000100009F
:109EC400000301010C00010800000301016C000300
:109ED400080000030101EC00030400030303011262
:109EE400010100000003010134010300000003012B
:109EF40001210000000000030101DC00000000005B
:109F04000301013101010000000000010000000014
:109F1400000000000000000000000000000000003D
:109F2400000000000000000000000000000000002D
:109F34000000000000000000004B000108000003C6
:109F44000101480001080000030101420101000071
:109F540000030101440000000000030101B90000F6
:109F6400000000000001AB00000000000000010040
:109F740000000000000000005A0001080000020177
:109F84000100000000C225390000003C6000000010
:109F940000100000060000000000000001040000A2
:109FA40000000000000105000100000000000101A4
:109FB400010100000000000100000000000000009A
:109FC400000300010000000201010B000108000071
:109FD4000201013B00020800000201016B000308BA
:109FE4000000020101BB0002000002020201EB00BA
:109FF400030400030203019F0001000000000001AC
:10A00400000000000000000000000000000000004C
:10A01400000000000000000000000000000000003C
:10A02400000000000000000000000000000000002C
:10A03400000000000000990000000000000001661C
:10A04400000000000000000100000000000000000B
:10A0540000000000000000000000020101000000F8
:10A06400020101320103000000020101C8000100E5
:10A074000000000001C50101000000000001810092
:10A0840000000000020101200000000000020101A4
:10A09400520000000000020101D80000000000028C
:10A0A4000101600000000000000001150001000033
:10A0B40000000001110101000000000001B70000D0
:10A0C400000000000001E90000000000000001039E
:10A0D40000010000000301010B000108000003015E
:10A0E400016B0003080000030101EB0003040003FB
:10A0F4000303010201010000000301013201030016
:10A104000000030101200000000000030101D80049
:10A114000000000003010100000000000000000036
:10A12400000000000000000000000000000000002B
:10A13400000000000000000000000000000000001B
:10A14400000000000000000000000000004B0001BF
:10A1540008000002010100000000000000000000EF
:10A1640000000000000000000000000000000000EB
:10A1740000B90000000000000001AB000000000076
:10A184000000010000000000000000005A00010867
:10A19400000002010100000010B5E0B1D9B10023B4
:10A1A4000122436080F822200C6804604A6880F829
:10A1B40020208A680261CA6812054261FF22C4F83D
:10A1C40084204FF0502401688C6701680A6201689A
:10A1D40018464A6410BD0120FCE738B1026800202B
:10A1E400136C23F0FF031943116470470120704777
:10A1F40070B5C8B105689DF918609DF91C00AC6C78
:10A2040040EAC60040EAC3239DF910006FF314042A
:10A2140043EA00239DF9140043EA801343EA4232DF
:10A2240042EA81412143A96470BD40B10268002023
:10A23400136C23F47F4343EA012111647047012026
:10A24400704770B5C8B105689DF918609DF91C0088
:10A254002C6D40EAC60040EAC3239DF910006FF359
:10A26400140443EA00239DF9140043EA801343EAEB
:10A27400423242EA81412143296570BD18B1036825
:10A284000020596070470120704730B103680139DC
:10A29400C1F313010020596270470120704730B1A7
:10A2A40003680139C1F31301002099637047012049
:10A2B400704708B103681962704718B103681869D8
:10A2C40000F00100704720B10268536943F00103B4
:10A2D4005361704738B50D460446A8B10368DA6186
:10A2E400C36A0BB10120984723689D612046FFF79C
:10A2F400E4FF0028FAD02046FFF7E5FFE36A0BB13C
:10A3040000209847002038BD0120FCE718B10268FE
:10A31400536919435161704718B103681869C0F350
:10A32400C000704728B103685868C04300F00100BA
:10A3340070470120704708B103685868704720B11E
:10A344000268536D61F38E235365704708B1036847
:10A35400D960704710B10368D868C0B2704770B54F
:10A36400E8B105689DF91C609DF92000AC6A40EADB
:10A37400C6009DF910606FF3150440EAC6209DF9EC
:10A38400146040EA06209DF9186040EA861040EA0D
:10A39400433343EA824242EA41512143A96270BDF8
:10A3A40070B5E8B105689DF91C609DF92000EC6B5F
:10A3B40040EAC6009DF910606FF3150440EAC62018
:10A3C4009DF9146040EA06209DF9186040EA861061
:10A3D40040EA433343EA824242EA41512143E9637A
:10A3E40070BD50B103681A6821B142F00102002027
:10A3F4001A60704722F00102F9E70120704750B15A
:10A4040003681A6821B142F4001200201A607047F0
:10A4140022F40012F9E70120704750B103689A68EA
:10A4240021B142F0100200209A60704722F010021D
:10A43400F9E70120704750B103681A6821B142F46A
:10A44400803200201A60704722F48032F9E701203C
:10A45400704750B103681A6821B142F48022002089
:10A464001A60704722F48022F9E70120704730B562
:10A4740080B10568BDF80C00AC68800640EA8353DF
:10A48400002043EA81416FF39E1441EA8212224381
:10A49400AA6030BD0120FCE730B102680020936857
:10A4A40061F30203936070470120704750B1036861
:10A4B4009A6821B142F0200200209A60704722F08D
:10A4C4002002F9E70120704750B103681A6821B1EE
:10A4D40042F0807200201A60704722F08072F9E71F
:10A4E4000120704750B103681A6821B142F4000298
:10A4F40000201A60704722F40002F9E70120704737
:10A5040050B103689A6821B142F0004200209A6079
:10A51400704722F00042F9E70120704750B1036808
:10A524009A6821B142F0080200209A60704722F034
:10A534000802F9E70120704740B102680020936DDA
:10A5440023F47F0343EA014191657047012070477A
:10A5540060B100685206836D42EA012123F0007362
:10A5640023F47F431943816500207047012070471D
:10A5740010B5F0B10468A06DB1B1022A84BF023AEB
:10A58400D2B213026FF30F0003F4FE430343120627
:10A5940054BF43F0806343F0A06343F00A0323F005
:10A5A40000730020A36510BD034B034043F0007308
:10A5B400F7E70120F7E700BF0000FFFA30B10268B7
:10A5C400936C23F4783343EA41319164704730B19A
:10A5D4000268136D23F4783343EA413111657047FF
:10A5E40048B10368D3F8882009B141F480310020D0
:10A5F400C3F8881070470120704718B10368D3F876
:10A60400880080B270477FB5054600283DD0C468F5
:10A6140001B394F86A30002B37D094F9726094F93E
:10A624006E3094F96C1094F96D20039694F971606E
:10A63400029694F97060019694F96F400094FFF7C4
:10A64400D7FDEB6893F86A102846FFF7C6FD002093
:10A6540004B070BD94F84630BBB194F94E6094F9DF
:10A664004A3094F9481094F94920039694F94D60BE
:10A67400029694F94C60019694F94B400094FFF7CC
:10A68400B7FDEB6893F84610DEE70120E0E77FB5FD
:10A694000546002836D0C468E1B194F96E6194F996
:10A6A4006A3194F9681194F96921039694F96D61FA
:10A6B400029694F96C61019694F96B410094FFF74A
:10A6C40097FDEB6893F866112846FFF786FD002096
:10A6D40004B070BD94F95C6194F9583194F9561141
:10A6E40094F95721039694F95B61029694F95A619F
:10A6F400019694F959410094FFF77AFDEB6893F8B9
:10A704005411E1E70120E3E730B5C46887B004B32E
:10A7140038291ED801EBC1010C44237CCBB194F938
:10A72400185094F9133094F9122094F911100495E7
:10A7340094F91750039594F91650029594F915500D
:10A74400019594F914400094FFF709FE002007B026
:10A7540030BD0120FBE7F0B5C4680646174687B054
:10A7640054B3382928D801EBC1052C44237C1BB3EE
:10A7740094F918C094F9133094F9122094F9111033
:10A78400CDF810C094F917C0CDF80CC094F916C0D8
:10A79400CDF808C094F915C0CDF804C094F914405C
:10A7A4000094FFF7DCFDF3683A462B443046197CED
:10A7B400FFF790FD07B0F0BD0120FBE72DE9F04164
:10A7C4009046C268044686B0002A72D0382970D8F0
:10A7D40001EBC107D619317C00296AD0382B68D81F
:10A7E40003EBC3052A44137C002B62D096F918C0EE
:10A7F40096F9133096F9122096F91110CDF810C07D
:10A8040096F917C0CDF80CC096F916C0CDF808C05B
:10A8140096F915C0CDF804C096F914600096FFF7B8
:10A824009EFDE068284490F9186090F9133090F97F
:10A83400122090F91110049690F91760039690F97C
:10A844001660029690F91560019690F91400009034
:10A854002046FFF7A5FD002223680121DA67E3689B
:10A8640022682B441B7C2046D36223680C9AC3F8CD
:10A874008020FFF7E0FD2046FFF7EBFD2368C3F8D7
:10A884001C80E36822683B441B7C93612046FFF7ED
:10A8940043FD0028FAD009212046FFF737FD0021A7
:10A8A400FFF7C9FD2046FFF7D4FD084606B0BDE812
:10A8B400F0810120FAE7000070B50446002841D079
:10A8C400C368002B3ED000293CD093F8935101215A
:10A8D400CDB3FFF7DAFC002214212046FFF73BFF3B
:10A8E4002046FFF728FDC30704D540F23E413D480A
:10A8F40004F04EFE002215212046FFF72CFF0546EA
:10A9040020B1002220461146FFF725FF02212046F0
:10A91400FFF7B4FC01212046FFF7B7FC00222B21EE
:10A924002046FFF718FF6DB101212046FFF7ADFC6B
:10A93400002202212046FFF70EFF2046FFF7F2FC1B
:10A944000028F5D070BDFFF7A0FC2A46022120465E
:10A95400FFF701FF2046FFF7EEFC2A4614212046AC
:10A96400FFF7F9FE10B92046FFF7E5FCE3681B7A10
:10A97400ABB3012103F00F051B0901FA03F3DBB2AA
:10A984000DB11D46002300221521204643EA05256A
:10A99400FFF7E1FE064620B1002220461146FFF7EC
:10A9A400DAFE29462046FFF769FC02212046FFF71C
:10A9B4006CFC002203212046FFF7CDFE002EC1D0FF
:10A9C40001212046FFF761FC002202212046FFF707
:10A9D400C2FE2046FFF7A6FC0028F5D0B2E7022508
:10A9E400D1E700BF6984002038B504460D46FFF75F
:10A9F40063FF29462046BDE83840FFF704BE38B55A
:10AA040004460D46FFF758FF29462046BDE8384066
:10AA1400FFF73DBE10B5044640B10268936A6FF378
:10AA2400150343F4802343F001039362032120467A
:10AA3400FFF72BFC00229F212046FFF74BFC20460A
:10AA4400FFF779FC20F07F4010BD70B50446002864
:10AA54003ED0C368012193F89351002D3BD0FFF7FA
:10AA640014FC002202212046FFF775FE88BB204615
:10AA7400FFF761FCC0B2E368DD790DB120EA05059A
:10AA8400002215212046FFF766FE064620B100226B
:10AA940020461146FFF75FFE29462046FFF7EEFBEE
:10AAA40001212046FFF7F1FB002203212046FFF796
:10AAB40052FE6EB101212046FFF7E7FB002202217E
:10AAC4002046FFF748FE2046FFF72CFC0028F5D06F
:10AAD40070BD0020CFE7FFF7D8FB2A4602212046AD
:10AAE400FFF739FE00283ED12046FFF724FCC6B20A
:10AAF400002214212046FFF72EFE18B92046FFF746
:10AB04001AFCC5B2E368D97909B126EA0101002229
:10AB1400204641EA05251521FFF71DFE064620B112
:10AB2400002220461146FFF716FE29462046FFF76D
:10AB3400A5FB02212046FFF7A8FB002203212046A3
:10AB4400FFF709FE002EC3D001212046FFF79DFB2D
:10AB5400002202212046FFF7FEFD2046FFF7E2FB1C
:10AB64000028F5D0B4E72E46C2E7F8B5044650B342
:10AB74000023FF2201214FF050260568436080F82E
:10AB8400221080F82030C5F884200568AE67056877
:10AB94002A6205686A6480F823308360FFF721FC29
:10ABA4002046FFF737FFC0F30727C0F30745C6B2B7
:10ABB40029463A463046FEF76FFB0146E06020B96D
:10ABC4002046FFF70EFC01200AE03A4629463046AB
:10ABD400FEF776FB00B1606194F823500DB10020BC
:10ABE400F8BD2046FFF731FF6369B3F1807F0DD9CB
:10ABF40021212A462046FFF7AEFD94F8201019B90A
:10AC04002046FFF7FCFEEAE70121F9E794F820105B
:10AC140019B92046FFF7E8FEE1E70121F9E760B141
:10AC2400006850B1836D090623F0807301F08071D0
:10AC340023F0FF0311431943816570472DE9F04761
:10AC44000E4691460546002843D0C468ACB1B1F520
:10AC5400805F3ED3A279120302F580528A4238D330
:10AC6400C1F30902E17A1A44B2EB012F31D81C4630
:10AC74009A460027BAF1000F02DC2046BDE8F087AF
:10AC8400BAF1400FD046A8BF4FF0400828464146CD
:10AC9400FFF7FBFA324632212846FFF75CFD3B46BC
:10ACA400002FB8BFFB1C4FEAA80123F0030201EBFD
:10ACB400A3014A4409EB81018A4204D14744464432
:10ACC400AAEB080AD6E72846FFF735FB42F8040B3F
:10ACD400F2E70024D1E710B5044640B3C36833B3A8
:10ACE400B1F5805F23D39B791B0303F580538B421B
:10ACF4001DD30121FFF7C9FA002214212046FFF7D2
:10AD04002AFD28B92046FFF716FBC0B2C00810BDC3
:10AD140002212046FFF7B9FA002202212046FFF75C
:10AD24001AFD2046FFF707FBC0F30720EEE7FF20DC
:10AD3400EDE738B50446D0B10368AB211D6815F0C2
:10AD4400010502BF1A6842F001021A600268936AA0
:10AD54006FF3150343F0010393620022FFF7BAFA7D
:10AD640025B92268136823F00103136038BD01205C
:10AD7400FCE718B1C068003818BF012070470020F4
:10AD840070472DE9F047884699460446002845D087
:10AD94008368002B42D0B9F1000F3FD001680F68DF
:10ADA40032B310229A60002382684E46536182684F
:10ADB40093618268D360802283681A6105680435D0
:10ADC400A06804F0A5FB50BBA06804F0B1FB30BB45
:10ADD400236847F020071F60226809F1FF3353629C
:10ADE400414633462A46A068BDE8F04704F0B4BBA8
:10ADF4004FF400719A60836809F1030659614FF4B6
:10AE040000618368454699618368B608DA608022E8
:10AE140083681A61036803F10408D1E70120BDE8DF
:10AE2400F08710B50A46044670B1806860B1E16AE3
:10AE340011B14FF0FF32002104F02EFB2268136899
:10AE440023F02003136010BD0120FCE72DE9F04F2F
:10AE540099B004460E469146FFF78BFF18B3002BBA
:10AE640000F0D780B3F5807F28BF4FF48073A168CA
:10AE74001D46626994F8203000293BD0B2F1807FEE
:10AE840014D9022B14BF2727282739462046FFF759
:10AE94003BFC49462B4601222046FFF772FF014640
:10AEA40048B10025284619B0BDE8F08F022B14BF25
:10AEB40016271727E9E732462046FFF74CFC012105
:10AEC4002046FFF7ECF9012332460093394602236A
:10AED4002046FFF773FC0028E3D14FF47A71204633
:10AEE400FFF79FFF0028DCD12268136823F02003BA
:10AEF4001360D7E7B2F1807F40F28280022B14BF47
:10AF0400272328232F464FF0000803934FF6FC7A9B
:10AF1400402FD4BF0AEA070A0AF0400ABAF1000F28
:10AF24003FD0002220461146FFF715FC09EB080329
:10AF34000DF1200C03F1400E62461868596808337D
:10AF440003C273459446F7D14FF0000B4FEAAA02AF
:10AF540008AB53F8041B204605920493FFF78EF9BF
:10AF6400059A0BF1010B9345049BF2D151462046FF
:10AF7400FFF78BF92046039906EB0802FFF7EBFB7A
:10AF840001212046FFF781F9002202212046FFF724
:10AF9400E2FB2046FFF7C6F90028F1D0A7EB0A0729
:10AFA400D0447B1E022B30D82369464433431B68AC
:10AFB4003A4609EB080107A8079304F069FA00224E
:10AFC40020461146FFF7C7FB07992046FFF756F9BD
:10AFD40004212046FFF759F9324620460399FFF72A
:10AFE400BAFB01212046FFF750F900220221204636
:10AFF400FFF7B1FB2046FFF795F90028F1D051E7A0
:10B00400022B14BF162317237CE7002F3FF77EAFD4
:10B0140048E7184647E737B5046912780C4373B11B
:10B0240014F8013C01398DF8063002238DF807200D
:10B034000DF10602FFF70AFF012003B030BD63786B
:10B044008DF806208DF807300DF106020223F1E792
:10B0540073B504460D46FFF78CFEE8B163690A46F2
:10B06400B3F1807F4FF00001204694BF1B262926B0
:10B07400FFF771FB01212046FFF711F901232A464E
:10B084000093314602232046FFF798FB003818BF8F
:10B094000120404202B070BD4FF0FF30FAE773B5B3
:10B0A40004460D46FFF765FEE8B163690A46B3F14D
:10B0B400807F4FF00001204694BF1D262A26FFF70B
:10B0C4004AFB01212046FFF7EAF801232A460093B0
:10B0D400314602232046FFF771FB003818BF0120D8
:10B0E400404202B070BD4FF0FF30FAE773B504463A
:10B0F400FFF73FFE30B30022012611462046FFF73A
:10B104002AFB01212046FFF7CAF8022300221E2150
:10B1140020460096FFF752FB051E18BF012594F840
:10B1240020306D42022B07D163693146B3F1807F31
:10B13400204604D9FFF763FC284602B070BDFFF730
:10B1440053FCF9E74FF0FF35F6E7000008B5E8B126
:10B1540003680F4A93420CD002F58052934215D1F2
:10B16400062001F021FB022805D1BDE8084001F0CA
:10B1740050BB0420F5E7032803D1BDE8084001F0E3
:10B184004BBB0120BDE8084001F0B6BB002008BD60
:10B194000010045038B5054608B9002038BDFFF743
:10B1A400D9F804460028F8D02846FFF7CFFFB0FBB3
:10B1B400F4F0F3E708B1FFF72DBCFF20704773B537
:10B1C4000D46044618B94FF0FF3002B070BDC36895
:10B1D400002BF8D0B1F5805FF5D39B791B0303F501
:10B1E40080538B42EFD3FFF776FDE3682A0B9B79FC
:10B1F400B3EB153FE7DB0126013A06FA02F20240FF
:10B2040013D111462046FFF7A6FA31462046FFF730
:10B2140046F802232A46342120460096FFF7CEFA48
:10B22400002818BF6FF00200CFE76FF00100CCE7F1
:10B234002DE9F3410E4617461D46044618B9002071
:10B2440002B0BDE8F081C268002AF8D0B1F5805F91
:10B25400F5D393791B0303F580538B42EFD3D27A52
:10B26400C1F309032B44B3EB022FE8D8FFF733FDF6
:10B27400E268330B9279B2EB163FE0DB4FF0010842
:10B28400013B08FA03F30342D9D1A3681BB333216A
:10B294002046FFF739FA42462B4639462046FFF747
:10B2A40070FD02460028CAD101462046FFF753FA32
:10B2B40041462046FEF7F3FF02233246332120465F
:10B2C400CDF80080FFF77AFA0028B8D12268136815
:10B2D40023F0200313602846B2E77FB504460A46EC
:10B2E40051B3C56895F8FF31002B3BD090F820305E
:10B2F400C3B395F9076295F9022295F9033295F9DA
:10B304000112039695F90662029695F90562019673
:10B3140095F904520095FEF76BFFE368204693F815
:10B32400FF11FEF75AFF0121204694F82520FFF76C
:10B334001FF9002004B070BDFFF71AF9636994F88F
:10B344002010B3F1807F06D919B92046FFF79FF981
:10B35400EFE70121F9E719B92046FFF754F9E8E7C7
:10B364000121F9E70120E5E730B50546012487B05E
:10B3740078B104940024224621462346CDE90244B0
:10B38400CDE90044FEF7EBFF224621462846FEF7AE
:10B39400A1FF204607B030BD10B50446F0B10268E5
:10B3A4001420D2F8943043F00043C2F8943003F0F0
:10B3B40011F82368D3F89420D205FBD5D3F8940070
:10B3C400D3F89420C0B222F00042C3F8942094F839
:10B3D400253023F07F03034384F8253010BD00009B
:10B3E4002DE9F8430E4690461F460446002800F017
:10B3F4009D80002900F09A80FEF7CEFE2068FFF7BA
:10B40400BEFC3369002184F83430B3680546A36375
:10B41400F36884F824101B05E363022384F83630B0
:10B424003369C4F808805A1E5342534184F82330C8
:10B43400B8F1000F58D0002F56D03B68C8F8003040
:10B44400A368FA685A601022A3689A608022A368ED
:10B45400D960A3681A614FF48052A3685961A36844
:10B464009961A368D961A3681A62A3685962C0B1DB
:10B474006FF07F43984214D0012694F82330002BB8
:10B484003DD1002E3DD12046FFF753FC304602F05B
:10B49400A1FF322002F09EFF2046FFF78BFE0546F7
:10B4A4002FE001212046FEF74AFF5E4BA2692046A9
:10B4B4009A424FF000028CBF01211146FFF7AFFB07
:10B4C40020469DF82010FEF741FF94F835302BB14B
:10B4D400012B10D100212046FEF7F6FF0121204662
:10B4E400FEF77FFF0026C8E7002DDED06FF07F4314
:10B4F4009D42C1D1D9E7022BF0D10121EBE7002E07
:10B50400CAD025635FFA85F8C5F30729C5F3074553
:10B514004A4629464046FDF7BFFE0746E06038B973
:10B5240001462046FEF75DFFC4E90E7701200BE0DB
:10B534004A4629464046FDF7C3FE08B1E063606110
:10B5440094F8233013B10020BDE8F883002E65D1B0
:10B554002046FFF77AFA6369B3F1807F30D9324627
:10B5640021212046FFF7F7F894F8203053B93146EB
:10B57400204684F82660FFF742FA07212046FEF7AA
:10B584008BFFE0E701212046FFF739FA94F8267093
:10B59400012FF2D14A4629464046FDF79BFE38B1B9
:10B5A4002046FFF7F9FE39462046FFF796FEE4E70A
:10B5B400324631462046FEF7DBFF84F82660DCE79E
:10B5C40094F8203033B93146204684F82660FFF7DA
:10B5D4000BFAB8E701212046FFF706FA94F8267023
:10B5E400012F15D14A4629464046FDF773FE38B16E
:10B5F4002046FFF7D1FE39462046FFF76EFEA2E74C
:10B60400324631462046FEF7B3FF84F826609AE7B7
:10B61400324631462046FEF7ABFF94E784F82630E5
:10B6240091E700BF00E1F5051FB50190019B114CA6
:10B634000BB1206840B9002001F06EF90E4BB0FB4D
:10B64400F3F0019B20609BB1302882BF019B03F182
:10B65400FF330193019B5BB10522019B013B4343F3
:10B66400B3FBF2F30393039B5A1E0392002BFAD10C
:10B6740004B010BDF0DF012040420F0070B50E464B
:10B684001546044658B302220368DA600268936DD3
:10B6940023F00073936502680020D2F8943043F0DD
:10B6A4000043C2F89430FFF7BFFF1420FFF7BCFF3C
:10B6B4002068D0F89430DB05FBD5D0F89430D0F86E
:10B6C4009420DBB222F00042C0F894205A1E32705B
:10B6D40001220020043B2B702368DA6070BD012036
:10B6E400FCE7000037B514460546002843D000297E
:10B6F40041D0FEF751FD2846E1B2FEF727FE284669
:10B70400FFF748FD1D4B984230D91D4B98422FD965
:10B714001C4B984222D940F2B63440F274431A4A80
:10B72400904288BF1C46002201212846FFF777FA81
:10B7340000212246022328460091FEF798FE044683
:10B7440048B906212846FEF7A7FE044618B9012188
:10B754002846FEF746FE204603B030BD0B4B4FF49F
:10B764003E749842DFD800221146DEE7B424FAE79B
:10B774004FF4BE74F7E70124EDE700BF00366E0115
:10B78400006CDC0200D8B805000E2707008793037D
:10B7940030B50D46044687B0D8B14FF0030C0722EC
:10B7A400002190F82530CDE9011C013B5BB2CDE9C5
:10B7B40003220091FEF7D3FD02212046FEF765FD2A
:10B7C4002A4640212046FEF785FD2046FEF7B3FDBC
:10B7D400C0B207B030BDF0B50E461746054687B077
:10B7E400D8B1072200240323CDE903220121CDE9A6
:10B7F400014300942346FEF7B2FD02212846FEF7DA
:10B8040044FD39462846FEF739FD3246C021284614
:10B81400FEF760FD204607B0F0BD0120FBE7000005
:10B824002DE9FF410C4616461F460546002840D028
:10B834006B46214A1068516803C39068D16803C3FA
:10B844002846E1B2FEF75CFE07F110036B4413F8DF
:10B85400088C4FEA48185FFA88F80CB304AB03EB82
:10B86400560313F8104CA40044F0210464B204F00D
:10B87400FD0200212846FFF7AEFF711E284649B29B
:10B88400FEF79CFE424604212846FFF7A4FF791EDA
:10B89400284649B2FEF79BFE002004B0BDE8F081C3
:10B8A40006F110036B4413F8104CA40044F0010497
:10B8B400DCE70120F1E700BFB8680020F0B50E46D0
:10B8C4001746054687B0D8B1072200240223CDE9E4
:10B8D40003220121CDE9014300942346FEF73FFDF5
:10B8E40004212846FEF7D1FC39462846FEF7C6FC5B
:10B8F4003246C0212846FEF7EDFC204607B0F0BDD5
:10B904000120FBE730B5054685B0A0B1002407212E
:10B91400022390F82520CDE902115200CDE900431D
:10B9240052B22346FEF764FC21462846FEF755FC36
:10B93400204605B030BD0120FBE730B5054685B093
:10B9440090B1072100240223CDE90211CDE900437F
:10B95400234690F92620FEF774FC80212846FEF742
:10B9640064FC204605B030BD0120FBE7F0B5044679
:10B9740087B000283BD090F82330052B34D0033B0C
:10B98400012B2ED8012603270023072576B27FB288
:10B994001A4601212046CDE90355CDE90157009609
:10B9A400FEF7DDFC0022FF212046FEF793FC94F80D
:10B9B4002330052B0FD1002301211A462046CDE95F
:10B9C4000355CDE901570096FEF7C9FC0022FF217B
:10B9D4002046FEF77FFC002002F0FCFC032002F06E
:10B9E400F9FC002007B0F0BD03260227CCE70120B4
:10B9F400F8E7000030B5044685B000286ED0002971
:10BA04006CD0FEF7C9FB23680DF10E020DF10F0196
:10BA140020461D68FFF732FE01212046FEF796FC02
:10BA24002046FFF7B7FB2E4B05F00105984236D8A8
:10BA3400142303218DF80E308DF80F3008460023AF
:10BA4400B42284F8251084F826100621009020469C
:10BA5400FEF70DFD07212046FEF71EFD01212046BD
:10BA6400FEF75CFD9DF80E102046FEF765FD0022F2
:10BA74009DF80F102046FEF76BFD01212046FEF7CE
:10BA8400B0FC01212046FEF7BAFC2DB9154B1B680A
:10BA940003F00303032B1DD1002005B030BD124B6E
:10BAA40098420BD903F1377303F5D84398420BD965
:10BAB40007211420082340F23252C2E705210E2048
:10BAC400032340F2B632BCE706211120052340F2DD
:10BAD4007442B6E72046FFF749FFDDE70120DCE7C3
:10BAE400016CDC0200000C50011C4E0EF0B5044643
:10BAF40085B0002800F09680002900F09380FEF7BE
:10BB04004BFB23680DF10E020DF10F0120461E6858
:10BB1400FFF7B4FD01212046FEF718FC2046FFF78D
:10BB240039FB414B05469842404F06F0010650D878
:10BB3400142303218DF80E308DF80F30B422002326
:10BB4400009120460621FEF792FC07212046FEF7CD
:10BB5400A3FC01212046FEF7E1FC9DF80E102046CF
:10BB6400FEF7EAFC00229DF80F102046FEF7F0FCD9
:10BB740001212046FEF79AFC01212046FEF731FC04
:10BB840001212046FEF73BFC2EB994F8273013B967
:10BB94002046FFF7EBFEBD423AD9254B9D423CD9E6
:10BBA4000622022388253B2684F82630012184F8C6
:10BBB40025202046FEF7A4FC324600212046FFF74C
:10BBC4007DFE2A4604212046FFF778FE002005B0BA
:10BBD400F0BDB8420DD9164B98420FD903F1377313
:10BBE40003F5D84398420ED81421082340F2325268
:10BBF400A6E70E21032340F2B632A1E71121052363
:10BC040040F274429CE7172109234FF4BE6297E780
:10BC14000422002308253326C6E70522002308252D
:10BC24003726C1E70120D2E7016CDC02011C4E0E6D
:10BC340001882A1170B50E461546044686B0F8B13F
:10BC440007220323CDE901230023CDE90322009336
:10BC54000121FEF784FB31462046FEF72AFB022130
:10BC64002046FEF712FB29462046FEF707FB4FF459
:10BC740080326021204606B0BDE87040FEF72ABB42
:10BC840006B070BD38B504460122FFF7B3FE204666
:10BC9400FFF780FA154B98421FD9154B98421FD9CC
:10BCA40003F1F47303F5904398421CD942F28F7563
:10BCB40041F28F730F4A904298BF1D4601212046DE
:10BCC400FEF7ABFB2A4620460021FFF7B3FF012114
:10BCD4002046FEF715FC002038BD4EF28F75EDE7C7
:10BCE4004FF28F75EAE740F28F75E7E781FE210A8C
:10BCF40001D4650C01882A111FB560B10721032303
:10BD040090F82520CDE90013013A0023CDE9021172
:10BD140052B2FEF76DFA05B05DF804FB1FB560B1D1
:10BD24000721032390F82620CDE90013013A0023CC
:10BD3400CDE9021152B2FEF784FA05B05DF804FBB6
:10BD44002DE9FF470B69044680F823300B69033B58
:10BD5400032B00F28580DFE803F002635879204664
:10BD6400FFF748FE0322064608212046FFF733FD6D
:10BD74002046FFF70FFA4D4B98425FD903F1A463B5
:10BD840003F5834398425BD903F1377303F5D84332
:10BD9400984257D9464B984256D9464B984294BF3D
:10BDA400072500254FF0000807274FF0030A4FEA44
:10BDB4004509434609F1FF3239462046CDE9027769
:10BDC400CDE9008AFEF714FA41462046FEF705FA4B
:10BDD40043466A1E39462046CDE90277CDE9008AFA
:10BDE400FEF72FFA80212046FEF71FFA2B464A461B
:10BDF40001212046FFF714FD4FF6FF712046FEF7A0
:10BE0400EFFB304604B0BDE8F0872046FFF76EFE36
:10BE14002046FFF777FD2046FFF78FFD0026EBE76E
:10BE24002046FFF7E7FD4322064608212046FFF798
:10BE3400D2FC01212046FEF755FB99E70325B1E723
:10BE44000425AFE70525ADE70625ABE72046FFF758
:10BE540019FF2046FFF750FF2046FFF75FFFDDE79D
:10BE6400002603254FF0010802272046FFF73AFC7D
:10BE74003346062229462046CDE90067CDE902581B
:10BE8400FEF7B6F9EB212046FEF7A7F93346324612
:10BE940029462046CDE90067CDE90258FEF7D1F9DD
:10BEA40038212046FEF7C1F90646A5E70129DE0739
:10BEB40001EBC9130184D717000000000102030439
:10BEC400000000000402060110B5064C23780BB1F3
:10BED400002010BD044B9B6A03B1984701232370D3
:10BEE400F6E700BF4DE20120B4573312182208B51B
:10BEF400034903F0D9FA0028014818BF002008BDFF
:10BF0400B45733120649431E13F8012F11F8010BDD
:10BF14000AB18242F8D0101A18BF4FF0FF307047B0
:10BF2400C885002070470000002310B5084A916BB3
:10BF3400814205D8D46B2144814201D958B210BD45
:10BF44000133052B02F14402F1D14FF0FF30F6E743
:10BF5400702A0220064A936B834206D8D26B13449C
:10BF6400834294BF0020012070470020704700BF27
:10BF74002428022003460244934200D1704703F868
:10BF8400011BF9E77047704738B50546FFF7E2FF34
:10BF9400044648B92846FFF7C7FF431C06D044228D
:10BFA400034B02FB003038BD0248FCE72046FAE7A9
:10BFB400702A0220242802200120704710B50C4664
:10BFC400C9B12AB9022000F097FCB0FBF4F010BD0F
:10BFD40000F0EAFB0228024602D100F01AFCF4E762
:10BFE400012802D100F012FCEFE7044B0448032AB5
:10BFF40018BF1846E9E70846E9E700BF006CDC0211
:10C0040000D8B8052DE9F74F442400252D4FDFF85B
:10C01400C4A004FB00749946DAF80030064688464A
:10C024009346E56213B1284C284BE362D8F80C30F0
:10C03400202B03D9002003B0BDE8F08F86B3012E76
:10C0440038D0B9F1010F04BF8F2384F82530DAF812
:10C05400003084F8269043B1FFF7AEFF0122014679
:10C0640005460620FFF7AAFFA0616821184A5B462F
:10C0740001FB0622204641460095FFF7B1F900284E
:10C08400D8D1DAF80030EDB2A5623BB1442303FB0A
:10C094000677A36BFA6B1344A36323610120CAE7F9
:10C0A40001F0C2F90122054601460420FFF786FF8C
:10C0B400A061C6E701F0BEF93246054601460620F6
:10C0C400F4E700BF702A02202428022025690020FA
:10C0D40068280220202802200020704770B50D4CEB
:10C0E4008AB026464422002105AD0B48FFF742FFE3
:10C0F4000FCE0FC533682B6001AD04F114030FCBD1
:10C1040085E80F0000232A4605A90120FFF77AFFDE
:10C114000AB070BD1C6C0020B42A022000207047B5
:10C124000020704700220C4B10B51A60FFF7D4FFB3
:10C13400041E18BF0124FFF7D1FF08B144F0020424
:10C14400FFF7ECFF08B144F00404FFF7E9FF08B17E
:10C1540044F00804204610BD2028022010B586B003
:10C1640001F062F93022002104461748FFF702FF6C
:10C17400142201A8FFF7FEFE144B0193A3F55833D4
:10C184005B68C3F30223023B042B1AD8104AD35C26
:10C194008B4208BF0323082205934FF08053CDE957
:10C1A400033201F03BF90346591E4B4206484B410A
:10C1B400224601A980F82730FFF7C2FD002006B00F
:10C1C40010BD0323E7E700BFF0270220001004504E
:10C1D400146C0020B0F1805F08B502D0B0F1C04FFC
:10C1E40004D10348FEF7D6FF400808BD0020FCE751
:10C1F400F027022007B5FFF785FE013004D00421A3
:10C204000348FFF7C5FA019003B05DF804FB00BFD3
:10C21400F02702200303050206000000002004505A
:10C2240002000000000000122000000000000000D6
:10C234001C10085000000000330000000100000042
:10C24400FFF78CBFFFF7C6BFFFF7D4BFEFF3108033
:10C2540072B6704780F31088704740BF714A136804
:10C26400012B04D04FF0010313606F4A10606F4A32
:10C2740011606F484FF0805101607047EFF31082F6
:10C2840072B66848016889B34FF0000101606648DE
:10C294000168B1B1EFF309811EF0100F08BF21ED61
:10C2A400108B21E9F00FEFF30B8441F8044D4FF0AC
:10C2B40000041EF0100F08BF012441F8044D00686B
:10C2C40001605A490968096808C910C984F30B88D0
:10C2D400B1E8F00F002B18BFB1EC108B81F3098883
:10C2E4004EF0100E002B18BF2EF0100E82F31088A3
:10C2F4004EF0040E70474F484FF47F01D0F80020F1
:10C3040041EA02010160704748490860EFF3148272
:10C3140022F0040282F3148843494FF000000860BD
:10C3240040494FF00100086042484FF47F01D0F8C3
:10C33400002041EA020101603D484FF08051016054
:10C344003D480068006800BF80F3088861B662B6A3
:10C35400704700BF20BF7047EFF308801EF0040F42
:10C3640001D0EFF3098020E9F00FEFF30B8440F8DC
:10C37400044D40F804ED40F804ED1EF0040F02D023
:10C3840080F3098801E080F3088800B503F01CF904
:10C394005DF804EB4EF0040E7047EFF308801EF0D6
:10C3A400040F01D0EFF3098020E9F00FEFF30B84C1
:10C3B40040F8044D40F804ED40F804ED1EF0040F7D
:10C3C40002D080F3098801E080F3088800B503F007
:10C3D400B7F85DF804EB4EF0040E704710B4EFF3B9
:10C3E400038410B47C4600B500B54DF804CD0FB4F9
:10C3F400089C2DE9F00FEFF30B8410B400B56846E8
:10C4040003F0B2F801BC10BC84F30B88BDE8F00F54
:10C414000FBC5DF804CB5DF804EB10BC10BC10BC81
:10C424007047000050E2022058E2022054E2022049
:10C4340004ED00E020ED00E008ED00E0104A137880
:10C44400FF2B05D10F4B9B68DB4303F001031370F3
:10C454000D4A506B4BB10D4B1B681BB90A23B0FB43
:10C46400F3F070470A4B1B88F9E74FF47A72C0F374
:10C474000E03C00B5343504300EBD330704700BF4F
:10C48400548A012000B00C5000000C50A827022050
:10C49400A427022008B5002A00F05581002900F0E5
:10C4A4005281612800F24A81DFE810F062002C0119
:10C4B4004801690028016D00240148017100F00061
:10C4C4001C01180148017500480179007D004801EC
:10C4D400810048014801860013018B0090009500FB
:10C4E400A200A700AC00480148014801B100B60011
:10C4F4000E010901BB00C00048014801C500480104
:10C504004801CA004801CF00D400E900F9004801FD
:10C5140048014801480148014801D9000401DE00EE
:10C524003F01E100E300480148014801E5004801FA
:10C53400E700480148014801EB004801480148016F
:10C544004801480148014801F200F200F70048019F
:10C55400480148014801FB0048014801000120014D
:10C56400300135013A019A00480102014401F20008
:10C5740000230B6001234FF0A040136008BD00238B
:10C584000B600223F7E700230B600423F3E7002387
:10C594000B601023EFE700230B602023EBE700235D
:10C5A4000B604023E7E700230B608023E3E70023CD
:10C5B4000B604FF48073DEE700230B604FF480635D
:10C5C400D9E700230B604FF40063D4E700230B602A
:10C5D4004FF48053CFE700230B604FF40053CAE7B6
:10C5E40001230B604FF400134FF080401360C5E744
:10C5F40000230B604FF48043BDE700230B604FF42E
:10C604000043B8E700230B604FF48033B3E7002303
:10C614000B604FF40033AEE700230B604FF480232C
:10C62400A9E700230B604FF48013A4E700230B60F9
:10C634004FF400139FE700230B604FF480039AE745
:10C6440000230B604FF0007395E700230B604FF05D
:10C65400006390E700230B604FF080538BE70023C7
:10C664000B604FF0004386E701230B6083E701234F
:10C6740086E7012388E701238AE7012390E7012362
:10C6840096E701230B604FF4007374E701239EE7E0
:10C6940001230B604FF400236DE70123C2E701235C
:10C6A400CFE701230B604FF4000364E70123C3E7E2
:10C6B4000023F7E700230B604FF4807394E7002313
:10C6C4000B604FF480638FE700230B604FF400731B
:10C6D4008AE700230B604FF4004385E700230B60D7
:10C6E400402381E700230B6020237DE700230B60B8
:10C6F400102379E700230B60082375E700230B6000
:10C70400042371E700230B6002236DE700230B6011
:10C714004FF4801368E700230B604FF4002363E7B2
:10C7240000230B604FF480235EE700230B604FF47B
:10C73400803359E700230B60802355E740F2223110
:10C74400024802F025FF002018E700BF06850020FC
:10C7540007B5134A134902EBC002D1F89C30927812
:10C76400022862F30303C1F89C300DF1070011D1D4
:10C77400FCF7E8F810B10B238DF80730094A9DF84F
:10C784000710D2F8943061F30303C2F8943003B075
:10C794005DF804FBFCF7E2F80028EFD00D23EBE78B
:10C7A400B479002000A00C504FF0A0430D281A6A61
:10C7B4000DD842F6F173C34013F0010F0CBF0123EF
:10C7C40003238340134023FA00F0C0B270470123CF
:10C7D400F7E70000012803D002280ED0002070479C
:10C7E4004FF0A043DB6A63B113F001000AD006489E
:10C7F400C3F3830303FB000070474FF0A0431B6B9C
:10C80400F1E71846704700BF00366E010120FFF7BC
:10C81400E1BF0220FFF7DEBF0020704738B5244B8C
:10C82400A1F1B774A4F558549C423FD8012839D0DB
:10C83400022839D040F27B611E4802F0A9FE1E4B4B
:10C844000020D3F8942091075EBFD3F8942042F0DF
:10C854000202C3F89420D3F89420D2075EBFD3F821
:10C86400942042F00102C3F89420144A2B68B4FBCC
:10C87400F2F423F001032B602B6823F4005323F01C
:10C884003C0343EA840343F4805343F001032B60E5
:10C8940001F0A0FD0A2001F09DFD2B68002BFCDABD
:10C8A400002038BD064DCAE7064DC8E70120F8E769
:10C8B400002A75150685002000B0005000366E0170
:10C8C4002C0000503000005001460120FFF7A6BFA5
:10C8D40001460220FFF7A2BF4FF0A042D36A002016
:10C8E40023F00103D36270474FF0A042136B002082
:10C8F40023F0010313637047012808D14FF0A043CC
:10C904001B6A03F00303032B01D1FFF77FBF014828
:10C91400704700BF006CDC02021E08BF012210B584
:10C924001046FFF7E9FF012A04460AD0022A10D074
:10C9340040F24B710A4802F02BFE0123B4FBF3F0E2
:10C9440010BD4FF0A0435B6ADBB2012BB8BF0123DB
:10C95400F4E74FF080435B6903F03F03F5E700BF62
:10C96400068500204FF0A04310B50D281B6A18D887
:10C9740042F6F172C24012F0010F0CBF01220322F1
:10C9840002FA00F411404FF0A04223EA040381406C
:10C994000B43136220B90120FFF7BEFF024B18605E
:10C9A40010BD0122ECE700BFA48101200028D8BFFC
:10C9B400002008B5CCBFFF230346002912DB002A60
:10C9C40043F4E06340EA01200EDA4FF0A0414A6AE2
:10C9D40022EA030303434B620120FFF79DFF074B49
:10C9E400186008BD002A04DB43F4E04340EA023047
:10C9F400EBE7002BF0D0FF23E7E700BFA481012081
:10CA040070B50C46194D0646FFF7A2FE2B69FA20B5
:10CA140023F004032B6101F0DDFC302C0DD8002140
:10CA24000846FFF79FFF302004220021B0FBF4F0FA
:10CA3400FFF7BCFF0024204670BD01F059FC0C48F0
:10CA440000EBC60043680B48EB616043FFF73CFF13
:10CA540004460028EFD1012106220846FFF7A6FF6D
:10CA640003212046FFF77EFFE4E700BF00B000503B
:10CA7400B479002040420F002DE9F3411F4C204FB0
:10CA840004EBC0023B6B9278054662F317534FEAFE
:10CA9400C0083B630DF107000E46FBF753FF10B1CE
:10CAA4000B238DF807309DF8071014F93520302535
:10CAB4000A440021FB6C084662F38503FB64FFF71C
:10CAC40051FF302EB5FBF6F504D940F602210D488E
:10CAD40002F05EFD042200212846FFF767FFFFF7FE
:10CAE400FBFE01F011FC4444074B6268DA611A69E9
:10CAF40042F004021A6102B0BDE8F081B47900206A
:10CB040000A00C500685002000B0005070B5314ED6
:10CB1400054633780C46012B43D9023B012B02D93D
:10CB24000125284670BD2C4B53F82120FFF771FED8
:10CB34009042F5D8012905D829462046FFF79CFFE5
:10CB4400002535E000210846FFF70CFF2046FFF7DB
:10CB5400FFFDFA2001F03EFCFFF7BEFE302D0DD89C
:10CB640001F0D2FB00210846FFF7FCFE042200215D
:10CB74003020B0FBF5F0FFF719FFE1E701F0B8FB57
:10CB840016486843FFF7A0FE05460028C8D10121D6
:10CB940006220846FFF70AFF03212846FFF7E2FEB4
:10CBA400CEE7012909D901462046FFF729FF0546AA
:10CBB4000020347001F00EFCB3E78B4203D14FF038
:10CBC400FF321146D4E790210220FFF719FF002815
:10CBD400A6D1B1E7A0810120A479002040420F0032
:10CBE400002808B511DD002926DB012800D139B160
:10CBF4003F2343F4E06340EA0120002A0BDA0EE00D
:10CC04000146F5E700200346F3E70029FADA002A93
:10CC14000CDB0020034643F4E04340EA02304FF0CB
:10CC240080414A6922EA030303434B610220FFF770
:10CC340073FE024B186008BD3F23DEE7A481012088
:10CC440038B5041E08BF012420460D46FFF764FED4
:10CC5400012C08D0022C0ED00A4840F26C7102F06C
:10CC640097FC002006E04FF0A0435B6A3DB1C3F39C
:10CC74000223D84038BD4FF080435B69F6E7C3F325
:10CC84000233F6E7068500204FF080431A6842F429
:10CC940080221A601A685203FCD51A6822F4802292
:10CCA4001A607047024A136823F004031360704744
:10CCB40000000440134A1368590721D4116800285E
:10CCC4000CBF01234FF0FF3341F0040111604FF01A
:10CCD400804243F48013136011680029FCD0094A90
:10CCE400116CC80606D5116C41F002011164116C77
:10CCF400C906FCD44FF080410A6822EA03030B60A2
:10CD0400704700BF0000044007B56A4601A9FFF759
:10CD1400C1FBB0F1A04F0FD1019B13B1012B11D175
:10CD24000C480368009A13430360036823EA020370
:10CD3400036003B05DF804FBB0F1804F02D1019BA6
:10CD4400002BEED040F60301034803B05DF804EB7A
:10CD540002F01EBC040000500685002007B56A4698
:10CD640001A9FFF797FBB0F1A04F05D1019B83B157
:10CD7400012B06D10F4B0DE0B0F1804F01D1019B87
:10CD8400B3B140F622010C4803B05DF804EB02F0A5
:10CD9400FFBB0A4BEFF31081012282F310881A685B
:10CDA400009802431A6081F3108803B05DF804FB15
:10CDB400034BEFE70C0000500685002008000050EC
:10CDC4000400004007B56A4601A9FFF763FBB0F110
:10CDD400A04F05D1019B83B1012B06D1104B0DE06F
:10CDE400B0F1804F01D1019BBBB140F63F010D482A
:10CDF40003B05DF804EB02F0CBBB0B4BEFF31081F7
:10CE0400012282F310881A68009822EA00021A604C
:10CE140081F3108803B05DF804FB044BEEE700BF18
:10CE24000C0000500685002008000050040000405B
:10CE34002DE9F8432A4B1B69002B4EDA4FF0A0452D
:10CE44006B6B4FF00B096FF30F036FEA93336FEAC9
:10CE540083334FF400744FF48078224E6B63736F06
:10CE6400214F43F4C0037367736F43F040637367E8
:10CE740047F6E073726F03EA44133A40134373674F
:10CE8400032001F0A7FA6B6B43F080436B636B6B79
:10CE9400002BFCDAA96BAA6B6B6B90B223F0804376
:10CEA400B0EB114F6B634FEA114335BF1B1AC01A25
:10CEB4004444A4EB080435BF98B280B2A4B2A4B22F
:10CEC4003F2804D9B9F101094FEA5808D0D1A02864
:10CED40094BF00200120BDE8F8830120FBE700BFD8
:10CEE40000000C5000A00C501F80FFFF0028D6BF8C
:10CEF4000020FF230346002913DB002A08BF012278
:10CF0400090201F4E061002A43F4E06340EA01000D
:10CF140009DA4FF0A0414A6C22EA030303434B644D
:10CF24007047002A06DB120302F4E04243F4E043B4
:10CF34001043EEE7002BF3D0FF23EAE74FF0A043C2
:10CF44005A6C22F480225A645A6C61F311425A6476
:10CF5400704708B50F20FFF735FF0D20FFF732FFAC
:10CF640001200021FFF7EAFF02460C20FFF7BEFF75
:10CF740000210C20FFF7F6FC02F0D2FA08BDF028DD
:10CF84000DD8902807D8302807D8182894BF002136
:10CF94000121FFF7BBBD0321FBE70221F9E70120D3
:10CFA40070470000000000000000000000882A1103
:10CFB40000882A11FB06090030031000FD080A004E
:10CFC40031031100000B0D0013021300020D0F00BA
:10CFD400130213002DE9F04102F0CAFA00210120E6
:10CFE40000F0F0FC01221F4B1A600020FFF7DCFB6D
:10CFF400002107460846FFF7B5FCFFF707FC80460B
:10D00400FFF707FC184C0646FFF766FCFFF76CFCBD
:10D01400E36A23F01003E362144B186801F0C6F8C6
:10D0240030BF00BF00BF00BF00BF00BF00BF00BFD4
:10D0340000BF00BF00BF0025E36A404643F0100371
:10D04400E3622560FFF740FC39462846FFF78AFC77
:10D054003046FFF73DFC284600F0B0FCBDE8F04147
:10D0640002F062BA00E100E000000C50ECA10120E3
:10D07400F8B502F07DFA4FF09050FBF7BEFD0021A9
:10D08400012000F09FFC01222A4B1A600020FFF7C8
:10D094008BFB002107460846FFF764FCFFF7B6FB4D
:10D0A4000546FFF7B6FB244C0646FFF715FCFFF7D1
:10D0B4001BFC236B002043F001032363236B43F029
:10D0C40002032363E36A23F01003E36201F076F8BA
:10D0D40030BF00BF00BF00BF00BF00BF00BF00BF24
:10D0E40000BF00BF00BF236B23F001032363236B46
:10D0F40023F002032363E36A43F01003E362002393
:10D10400236015B12369002BFCDA2846FFF7DCFB0A
:10D1140039460020FFF726FC3046FFF7D9FB0020F4
:10D1240001F058F9002000F049FC02F0FDF94FF03D
:10D13400FF30F8BD00E100E000000C504FF0006249
:10D144002DE9F8434A4B4B4E5F685A604A4B07F04F
:10D154008057B36302F00CFA0124484B1C60002092
:10D16400FFF722FB0546FFF751FB8146FFF751FB12
:10D1740021468046204600F025FCFBF73FF90021BC
:10D184000846FFF7EFFB3E4B186801F01FF8EFF37A
:10D1940003823C4B1A64EFF310825A64EFF3138258
:10D1A4009A64EFF31182DA64EFF314821A65EFF3F1
:10D1B40009829A65EFF308815965EFF30B81D9650C
:10D1C400EFF30A8119665A6302B4194601C108468D
:10D1D40002BC02C00146A1E8FC1F64337846373024
:10D1E4001860C3F804E0C3F808D0FFF775FBFFF735
:10D1F4007BFB01F06DF8BFF34F8FBFF36F8F00BF60
:10D2040000BF00BF00BF00BF00BF00BF00BF30BFF2
:10D2140000BF00BF00BF00BF00BF00BF00BF00BF12
:10D2240000BF00BF0024F36A204643F01003F362FA
:10D234003460FFF7B9FAA84209D04846FFF744FB27
:10D2440020462946FFF78EFB4046FFF741FB1FB1FE
:10D254004FF08052064B5A600024064B01209C6319
:10D2640000F0ACFB02F060F92046BDE8F88300BF93
:10D2740000ED00E000000C50897C002000E100E09B
:10D28400F0A101206CA10020F8B55C4E336803F0D6
:10D294000303032B40F0B080594B1B6883F30888C9
:10D2A400584C236E83F30A880122574D574B0020B4
:10D2B400AB60D5F8883043F03F03C5F88830D5F823
:10D2C400883043F47003C5F88830514B1A70336BBF
:10D2D40023F00203336301F07DF8FBF76BF8336B43
:10D2E4004C4A23F001033363136A264643F0005388
:10D2F400136201F037F802F0C3F86B6913F40033DA
:10D3040011D1BFF34F8FBFF36F8FC5F85032BFF306
:10D314004F8FBFF36F8F6B6943F400336B61BFF3BF
:10D324004F8FBFF36F8F384A536913F4803323D17F
:10D33400C2F88430BFF34F8F43F6E075D2F88030E3
:10D34400C3F3C900C3F34E335B01014603EA050C82
:10D354004CEA81770139C2F86072F9D2203B13F1AB
:10D36400200FF2D1BFF34F8F536943F480335361DD
:10D37400BFF34F8FBFF36F8F02F022F9FEF766FF02
:10D3840000F020F902F0B8F8FEF7B5FF636EE3632E
:10D39400A36EA363E36EA365636C83F31088E36CED
:10D3A40083F31188A36C83F31388236D83F31488A8
:10D3B400A36D83F30988E36D83F30B88636D83F3B3
:10D3C4000888236E83F30A880122134B1A60D4E978
:10D3D4000F32A46D82F3008882F3008484F30988F9
:10D3E400194602B4314601C901B40846B0E8FE1F2B
:10D3F400D0F804E001BC00BDF8BD00BF00000C5033
:10D4040068A100206CA1002000ED00E00080211242
:10D41400A0A1012000B0005000E100E0014B187809
:10D42400704700BFA0A10120014B1888704700BFBE
:10D43400588A0120014B1888704700BF568A012082
:10D44400014B1880704700BF588A0120014B188097
:10D45400704700BF568A01200048704700E0001260
:10D4640038B50020FFF7A0F9044628B900F040FFC2
:10D4740001212046FFF776FA01210C20FFF772FA0A
:10D48400FFF7CCFF012851D0022000F05FFE0120FD
:10D49400FFF710FC02F02CF800F04CFF012002F022
:10D4A40073F8022002F010F8012002F005F8384861
:10D4B40002F056F84FF08042136943F010031361F1
:10D4C400EFF31085012383F31088324C23781BB9C2
:10D4D4009421314802F05CF82378013BDBB22370DD
:10D4E40023B92E4AD36A23F00103D36285F310884B
:10D4F4002B4B9C6814F0010418D102F01DF864222F
:10D504002146C82001F0DCFF01F0E6FF4FF416527B
:10D51400B0FBF2F04FF47A72B2FBF0F2214901321F
:10D524000B6F23F47C7343EA02130B670224042574
:10D53400F020FFF724FD1C48FFF7CAF9002000F093
:10D5440049FF1A4B1C801A4B1D8000F0CAFF21466C
:10D554002846FFF707FA012200201146FBF726F9B7
:10D56400FEF76EFE21460620FFF7FCF9FFF756FF93
:10D57400012808D1094A136B23F001031363BDE8A2
:10D584003840FEF7ABBDBDE83840FBF7FBBD00BF3C
:10D5940000B0004000A200206885002000000C506C
:10D5A40000B00C5000A00C5000882A11588A0120A9
:10D5B400568A012008B500F0B7F8BDE808400120FC
:10D5C40000F0FCB9704701460122002000F0D0B9F8
:10D5D40000210122084600F0CBB908B54FF4FA70D7
:10D5E40000F0F8FEBDE8084000F068B810B501236B
:10D5F400044610220921022001F07CF801231022A4
:10D604000A21032001F076F8012310220B210420C3
:10D6140001F070F8012310220C21052001F06AF8B2
:10D62400012310220D21092001F064F801231022A6
:10D634000E210A2001F05EF8012310220F210B2095
:10D6440001F058F81022012311460C2001F052F881
:10D65400012300221946082001F04CF8012300227E
:10D664000321062001F046F8022C4FF0010310D0EC
:10D67400042C21D0102206210D2001F03BF80121B9
:10D68400084601F0DFF9BDE810400121072001F050
:10D69400D9B910220421184601F02CF801231022D4
:10D6A40005210D2001F026F82146BDE81040012394
:10D6B4000022072001F01EB80022DCE710B5012388
:10D6C40000225C21182001F015F801220A201146DD
:10D6D40000F04EF9012300224FF4A771112001F04C
:10D6E40009F80123002240F24F11122001F002F840
:10D6F400012300224FF4A871132000F0FBFF012343
:10D70400002240F25111142000F0F4FF01233022D2
:10D7140052210E2000F0EEFFBDE81040012300224C
:10D724005421102000F0E6BF10B5904B5B68C3F3A2
:10D734000223023B042B00F20F81DFE803F0C8C68A
:10D744004403C4000123002219460A2000F0D2FF3A
:10D75400012300220321092000F0CCFF0123102221
:10D764000921062000F0C6FF012310220A21082007
:10D7740000F0C0FF012330220B21072000F0BAFF84
:10D78400012330220C210B2000F0B4FF01210846B4
:10D7940001F058F90121022001F054F9012103207C
:10D7A40001F050F90121042001F04CF90121052078
:10D7B40001F048F901210C2001F044F901210D2068
:10D7C40001F040F902E00220FFF710FF01230022DC
:10D7D40019211E2000F08EFF012300221B211A2094
:10D7E40000F088FF0123102221211D2000F082FF78
:10D7F4000123102222211B2000F07CFF0123302270
:10D8040023211C2000F076FF0123302224211F2035
:10D8140000F070FF0123102252210E2000F06AFF55
:10D82400012310225C21182000F064FF0123302220
:10D834004FF49071202000F05DFF0123302240F26C
:10D844002111212000F056FF0123002240F249114A
:10D85400262000F04FFF012310224FF4A47127204B
:10D8640000F048FF012300224FF4A3712A2000F0A6
:10D8740041FF0123002240F247112B2000F03AFF20
:10D884000123302240F2DD112E2000F033FF01236A
:10D8940010226721232000F02DFF01231022722182
:10D8A4002E2000F027FF012310227821342000F0DD
:10D8B40021FF012310227E213A2000F01BFFBDE846
:10D8C4001040FFF7FBBE04207EE701207CE7012324
:10D8D40010220921022000F00DFF012310220A2149
:10D8E400032000F007FF012310220B21042000F085
:10D8F40001FF012310220C21052000F0FBFE01236F
:10D9040010220D21062000F0F5FE012310220E2125
:10D91400072000F0EFFE012310220F21082000F061
:10D92400E9FE102201231146092000F0E3FE012341
:10D93400102206210A2000F0DDFE012300221946F0
:10D944000B2000F0D7FE0321012300220C2000F05D
:10D95400D1FE012108462FE700240134012120468D
:10D9640001F070F80D2CF8D130E700BF00B0005082
:10D974007FB50B4B0B4C0546002A18BF1C460123F0
:10D984000E46CDE901030023204601A9039300F0CC
:10D9940039F92046F2B2A9B200F038FA04B070BDE9
:10D9A40000000A5000000840012200210B20FFF76C
:10D9B400DFBF01220B201146FFF7DABF08B5FFF7DE
:10D9C400F8FF08BD08B5FFF7EFFF08BD2F557365D5
:10D9D40072732F68697665746F6E2F486976657403
:10D9E4006F6E436F64652F48697665746F6E576F09
:10D9F400646C655869616F7A68692F73646B2F640E
:10DA04007269766572732F68616C2F6266305F6825
:10DA1400616C5F6770696F2E63002F557365727355
:10DA24002F68697665746F6E2F48697665746F6EBA
:10DA3400436F64652F48697665746F6E576F646CC5
:10DA4400655869616F7A68692F73646B2F647269B2
:10DA5400766572732F68616C2F6266305F68616CE3
:10DA64005F6870616F6E2E63002F55736572732F3C
:10DA740068697665746F6E2F48697665746F6E4356
:10DA84006F64652F48697665746F6E576F646C6553
:10DA94005869616F7A68692F73646B2F6472697651
:10DAA4006572732F68616C2F6266305F68616C5FAA
:10DAB4006D70692E63002F55736572732F686976D4
:10DAC40065746F6E2F48697665746F6E436F646515
