:020000040040BA
:10000000681A4020410D400091084000A9080000F6
:10001000E50800008B0D40008B0D40008B0D40006B
:100020000000000000000000000000008B0D4000F8
:100030008B0D4000000000000D080000690E40001C
:10004000B1044000A14F00008B0D40008B0D40001B
:100050008B0D40008B0D40008B0D40008B0D400040
:100060008B0D40008B0D40008B0D40006173000034
:100070008B0D40008B0D40008B0D4000015900009E
:100080008B0D40008B0D40005D0740008B0D400044
:100090008B0D40008B0D40008B0D4000490240004D
:1000A0008B0D40008B0D40008B0D40008B0D4000F0
:1000B0008B0D40008B0D40008B0D40008B0D4000E0
:1000C0000000000000000000000000000000000030
:1000D0000000000000000000000000000000000020
:1000E0000000000000000000000000000000000010
:1000F0000000000000000000000000000000000000
:100100000348044B834202D0034B03B118477047A6
:10011000681640206816402000000000064B074982
:10012000C91A891048BF0131491003D0044B0BB1E3
:1001300001481847704700BF6816402068164020E5
:100140000000000010B5064C237843B9FFF7D8FF34
:10015000044B13B10448AFF300800123237010BD9A
:10016000681A4020000000001016400008B5054B3A
:100170001BB105490548AFF30080BDE80840FFF713
:10018000CDBF00BF000000006C1A402010164000D8
:100190007047704737B540F6B832084B084C9D6C35
:1001A0002368EB1A934206D900F0C4FB01A900F0C2
:1001B000D1FB00B9256003B030BD00BF0000044092
:1001C000841A402007B50B4B93F8DB3073B10A4B10
:1001D0000A489A6C0A4B1A6055F492FD142000F0FC
:1001E000AFFB00F0A7FB01A900F0B4FB002003B0B7
:1001F0005DF804FB00FD4020000004409501400034
:10020000841A402000207047072910B50C4604D9F5
:1002100034220A490A4851F4A1F80A4B5A6AE240CA
:10022000D20703D51CB9986A16F48AFA10BD03EBFD
:100230008403986ABDE8104016F466BA231440009F
:100240008412400098E4402008B552F405FC0348AD
:1002500000F03DFCBDE8084052F416BC2C164020CE
:1002600008B5064A0648136943F00053136151F478
:1002700093F8044852F4CCF9002008BD00F0004087
:10028000A90240008902400010B5064C23695B00BA
:1002900006D4012001F4AEFE236943F080532361AC
:1002A000012010BD00F0004010B5084C23695B0030
:1002B0000AD4012001F49EFE236943F08053236198
:1002C000BDE8104000F0A8BF10BD00BF00F0004026
:1002D00008B552F4C1FB40F23B120449044851F402
:1002E0003DF8BDE8084052F4CFBB00BF43144000C6
:1002F0009D12400070477047012908B501D80020C1
:1003000008BD16F4BBF908B90720F9E716F4D4F9CB
:100310000028F9D0024B5A6A1B6A1A42EFD0F3E761
:1003200000000440704708B501F0FCF808BD00006B
:10033000014B1878704700BF54FD402010B50F4C9A
:10034000236A9A0606D45AF459FA236A9B060BD4F8
:10035000002010BD0A4B002BF5D000F055F9002805
:10036000F1D04FF0FF30F4E7064C2368002BEFD0BC
:1003700000F04CF900232360EAE700BF00000440CE
:1003800009064000F81A402010B50022FC210C4854
:1003900055F438F901200B4953F41CFF0A49002099
:1003A00053F436FE16F466F8084B094C9B6CA360B8
:1003B00055F416FF0123E0602370002010BD00BF3C
:1003C00038164020781440006C14400000000440AF
:1003D000D81A402070470000F8B52C4B196002393C
:1003E000032905D8DFE801F04A410902FFF7F2FFCF
:1003F000274B5A6A274B1A603FE0092053F44CFC04
:1004000004464568071DBD421DD1214EFFF796FFEA
:10041000B26C214B21489A6151F43CFC054618B15D
:100420000422012151F4BCFB736C1D4823F001032D
:10043000736401F473FC6468BC420CD116F4BEFA18
:1004400016F4F0FAD4E7A5F10C000422022151F4CD
:10045000A7FB2D68D7E7A4F10C00854203D0042246
:10046000012151F49DFB2468E6E75AF465F8084B36
:1004700000289A6C084B9A61BADBF8BD5AF4A8F8C8
:10048000034B9A6C044B9A61B2E700BFC0E840206E
:100490000000044058FD4020D81A4020AD12400012
:1004A00000000840014BD860704700BFD81A4020B8
:1004B00008B552F4D1FA00F495FFBDE8084052F4B3
:1004C000E3BA0000F8B5124E124B134C33602033E0
:1004D0002360124A124B134F1A60134B134D3B60AB
:1004E00003F5E6732B60124B02F56B7211481A602C
:1004F00005F4ACFA396830684FF4E67254F47AFBCC
:1005000020684FF4E672296854F474FB0020F8BDAB
:10051000E8E6402000E04020ECE6402040E04020BB
:10052000F0E64020F4E6402050E04020F8E640208D
:10053000FCE640207D590000044A054B1A60013A50
:1005400012680AB11B681847704700BF016040007D
:10055000FC1A402010B5012000F046F951F4CCFF00
:1005600001F4F3FB28B950F479FE00F0E3F950F4FC
:1005700069FE032050F476FE00240E230C4A0D4938
:100580001046C2E90744137553F442FD0A4855F476
:10059000B7FB0A4853F41AFEFFF7CEFF00F0C2F88B
:1005A00001F4FEFE204604F4B9FC204610BD00BF55
:1005B000001B40208014400055790100C105400017
:1005C000013008B501D0012008BD17F4B9FB00289F
:1005D000F9D10320F8E7000008B5094B0246186A74
:1005E00010F0200006D0074B9A4204D1012904D90B
:1005F00017F4A6FB08BD0020FCE74FF0FF30F9E739
:1006000000000440001B402004F42ABD08B501F49A
:10061000C7FE04F4FDFCBDE80840002000F0E4B88B
:1006200010B548B1012809D040F6D6020449054862
:1006300050F494FE204610BD0224FBE70624F9E79F
:10064000981440009D124000062238B50D4C02233C
:100650000125A270032204202370E27023716570CB
:1006600050F4BAFD43881420023BE37150F4B4FD0A
:1006700043886571023B2372A5712046BDE838406E
:1006800050F4DABDD4EA402000B5164A91B053794F
:1006900090795B0003F0020300F00100184350F46E
:1006A000C7FD2822002106A800F0E4FD4FF40072E7
:1006B0000D4B0621CDE903320023CDE901314FF482
:1006C000277301224FF48051009306A84FF4005382
:1006D0004FF4FEFE06A804F48FFC09F493FB11B05E
:1006E0005DF804FBD4EA402000FE402010B5002055
:1006F000FFF796FF084B53F820309847044628B977
:1007000040F649220549064850F428FE2046BDE837
:100710001040002150F4B8BDCCFD05008C14400001
:10072000C212400008B5FFF78FFFFFF7ADFFFFF7DC
:10073000DDFF08BD074BD3F89820C2F30B03120569
:1007400044BF83F47F6383F00F0313B1024A12683E
:1007500013607047004008405416402010B5074B06
:100760001C6852F479F9A30704D5054800F007FA8C
:10077000FFF7E0FFBDE8104052F486B900C000402A
:10078000401B402070B516461C225043114D124AA2
:100790002C182A5001222275104A05201268E07494
:1007A000A26000221220A1751146E260A674238285
:1007B00001F47CFC204600F09DF928B140F25F1264
:1007C0000749084850F4CAFD2046BDE870400121A1
:1007D00000F0B0B9401B402000C00040541640203B
:1007E000A5144000C512400010B528B10022084BE6
:1007F0001B681A605A601A81382000F059FABDE867
:100800001040002369211A461846FFF7BBBF00BFFE
:100810005416402000207047704708B500F082FB56
:10082000FFF7FAFF00F067FA032001F461FC0020F3
:1008300000F017FB003818BF012008BD024A1368FA
:1008400001331360704700BF5C1B4020034670B546
:10085000B8B142F210754FF0E026AB4284BFA3F569
:100860001C5442F21073326998BF0024184688BFA6
:10087000103CD30708D401F429FA2346002CECD10C
:1008800001E001F423FA70BD01F402FAF5E700007B
:1008900008B5054B1B695B0002D5FFF719FD08BDC4
:1008A00000F082FAFBE700BF00F00040114BF0B50A
:1008B00098421BD1032A1BD100241C2707FB04F6F6
:1008C0008D198E5900EBC4135E606E6801341E6191
:1008D000EE68A2429E622E699E636E695E64AE6996
:1008E0001E65AD68DD61E9D80020F0BD022AE2E7AF
:1008F0000120FAE700000A5007B50021022000F0AD
:10090000ABF80021019001A800F0C2F8003818BF30
:100910000120404203B05DF804FB07B5002102202E
:1009200000F09AF80021019001A800F0C3F803B08C
:100930005DF804FB014B1878704700BF5816402043
:1009400018B1034B1870002070474FF0FF3070470C
:100950005816402073B506460D4601F4F6F90028F6
:100960006DD1FFF7C9FF00286CD1384C0120D4F8B5
:1009700014316FF3DC4343F40023C4F81431D4F88A
:10098000143143F00053C4F81431D4F8143123F473
:100990008033C4F81431D4F81431C4F81431D4F8C5
:1009A00014316FF30F03C4F81431D4F814311E431B
:1009B000C4F81461D4F8143143F40033C4F814318A
:1009C00000F040FAD4F81831002BFBDA2048D4F8B4
:1009D000182101681F4E22F0004271B33368934220
:1009E0001DD2D41AFA2C23D9994221D9C91AFA292D
:1009F0001ED903EB43040D23083403FB02442409EE
:100A00000260042202200DEB02013460019401F423
:100A100049FA2C60FFF781FF002002B070BD07D9B2
:100A20009C1AC82C04D9994202D2591AC829DFE766
:100A3000C3EB031414440834E1E71446E0E74FF035
:100A4000FF30EAE76FF00200E7E700BF000009406F
:100A5000641B4020601B4020012808B508D10329F1
:100A60000ED8084800E00848182303FB010008E0FE
:100A7000012905D80228F6D0B021044800F020FA58
:100A8000002008BD0020085000200040CE12400089
:100A900008B538B1006848B14069002808DB00F0AB
:100AA0000F0008BD0220FFF7D7FFF4E70420F8E7A6
:100AB0000020F6E708B530B1006818B1436943F08B
:100AC0000043436108BD0220FFF7C6FFF5E770B59C
:100AD0000546002603681C699C6004B970BDE307E5
:100AE00004D5AB6813B12846F1B2984764080136C3
:100AF000F3E7000010B5044618B915210C4800F0C2
:100B0000DFF9237D072B03D91621094800F0D8F916
:100B10002368227D103303EB0213A26863605A60DE
:100B20006368E26800209A600123237610BD00BF4D
:100B30006F134000012210B5037D046802FA03F32D
:100B4000B1B161680B4343F4803363600468017D95
:100B5000A3688A40134343EA0243A360C27C837DB7
:100B600043EA02434268136002220276002010BD6D
:100B7000A16843EA034321EA0303A360F5E70123E5
:100B80000268007D516883400B435360704700004A
:100B900010B55AB151B123285DD047D80B283BD8A6
:100BA000E0B940F22231414800F08AF9002051E0DA
:100BB00059380728F5D801A454F820F0750C4000E6
:100BC0008D0C4000950C40009D0C4000A30B400094
:100BD000A30B4000A30B4000A50C400001380023EC
:100BE0000A28DED801A454F820F000BF870C40008A
:100BF000A30B4000A30B4000810C4000A30B40005E
:100C00007B0C4000A30B4000A30B4000A30B400053
:100C10006F0C4000690C400016284FF000031FD0F5
:100C20002228BED10B604FF4007310E06028B8D8C2
:100C300058284FF00003BBD8382805D03A28B0D147
:100C40000B604FF4803302E00B604FF480734FF081
:100C50008040136010BD00230B604FF48063F6E703
:100C60000B604FF40043F2E70B604023EFE70B60AB
:100C70002023ECE70B601023E9E70B600823E6E78D
:100C80000B600423E3E70B600223E0E70B604FF403
:100C90008013DCE70B604FF40023D8E70B604FF4C0
:100CA0008023D4E70B608023D1E700BFBC13400052
:100CB00007B56A4601A9FFF76BFFB0F1804F01D17C
:100CC000019B3BB140F62201094803B05DF804EBFB
:100CD00000F0F6B8EFF31082012383F31088436825
:100CE00000990B43436082F3108803B05DF804FB66
:100CF000BC134000704708B5FFF7FCFF08BD704704
:100D000008B50B4A0B4B9A60D3F8882042F03F029B
:100D1000C3F88820FFF7F3FF4FF458FC05F414F9EB
:100D2000FFF701FB50F4D4FA034B044A1A6008BDE4
:100D30000000400000ED00E05C16402040787D019E
:100D4000DFF848D0124880F30A88FFF7D9FF114C2A
:100D5000114DAC4209DA21686268A368043BA2BF66
:100D6000C858D050FAE70C34F3E70C4B0C4CA342B4
:100D700008DA19685A680020043AA4BF8850FBE7D3
:100D80000833F4E700F068F9FEE7FEE7681A402050
:100D90006816402024164000241640002416400007
:100DA0002C1640007047000038B5184B1A682ABB53
:100DB0000124174D1C602B695A001FD4FFF7F2FF66
:100DC000204601F417F92B69204643F080532B612C
:100DD000104B114D4BF681342B6000F033F8342268
:100DE0002B68DA602B685B699B0708D4012000F050
:100DF00029F8074A136843F00103136038BD013C2A
:100E0000F4D0012000F462FFECE700BF681B402033
:100E100000F0004000B000406C1B402010B5C26ADA
:100E2000816A043A04460A44054BD0E9080151F4AA
:100E300015FCE061A16ABDE8104000F045B900BFB3
:100E4000D15A050007B50190019B13B903B05DF8B5
:100E500004FB4FF47A70FFF7F9FC019B013B01930F
:100E6000F2E700207047000070B5144D51F4F4FD16
:100E70006B6AFFF7E3FC55F4B3F9EB6A04469B0693
:100E800005D455F4B5F9BDE8704051F4FDBDAD6C25
:100E9000461C01F4BFF801230246294630464FF4B0
:100EA0001BFD8442EFD08642EBD055F4A1F955F4F6
:100EB0009FF9A01CFFF7F6FAE5E700BF0000044029
:100EC000002307B540F22F2205490648019350F44C
:100ED00045FA019B002BFCD003B05DF804FB00BF7A
:100EE000B01440009D1240007047000008B5FFF7A5
:100EF000FBFFFFF792FC084854F458FFFFF749F94D
:100F000051F4CAFB51F412FC0449054854F42CFB7B
:100F1000BDE8084000F026B81D0E4000005C4020EF
:100F2000781D402008B501F443F84FF08042136962
:100F3000012123F0030343F001031361136902202D
:100F400043F010031361032201F4FEF9BDE80840E9
:100F5000FFF71EB90020704700207047002070473F
:100F60000020704738B5044C044DAC4200D338BD66
:100F700054F8043B9847F8E7E8154000EC154000AA
:100F800038B5054C054DAC4200D338BD54F8043B90
:100F9000002BF8D09847F6E7EC1540000C164000FF
:100FA00013B502248DF8064054F450FF90F8353004
:100FB0008DF8073054F44AFF21460DF1060254F42F
:100FC00059FCFFF7DDFF54F441FF21460DF1070204
:100FD00054F450FCFFF716F902B010BD7047000042
:100FE0000223142213B50B49CDE900320A484FF40D
:100FF0008063002254F486FC044628B94FF4B3728F
:101000000649074850F4AAF9204602B0BDE810404E
:1010100054F4BABFA10F400009144000C1144000AD
:101020000E14400008B5FFF7D9F3FFF77BF9FFF77F
:101030005DFFFFF77DF908B954F4FBF954F410FC97
:1010400054F4E4FBFFF7CCFF54F412FC00F01EF85C
:1010500054F4F2FB002008BD08B5FFF7BFFFFFF70F
:10106000E1FF002008BD000038B50024064D55F80A
:10107000043B03B198470134042CF8D154F4C2FD69
:1010800054F400FBF1E700BFECEF40201FB507234D
:101090002022CDE902324FF400730193064B074A38
:1010A000009307490023074854F444FE054805B05F
:1010B0005DF804EB54F468BF781B402069104000D1
:1010C0001D14400070EF402070470000EFF31080C7
:1010D00072B6704780F31088704740BF5F4A13684C
:1010E000012B04D04FF0010313605D4A10605D4A8C
:1010F00011605D484FF0805101607047EFF310823E
:1011000072B656480168C9B14FF0000101605448F9
:10111000016849B1EFF3098121E9F00FEFF30B8486
:1011200041F8044D006801604E490968096810C91A
:1011300084F30B88B1E8F00F81F3098882F31088FB
:101140004EF0040E704749484FF47F01D0F800205C
:1011500041EA0201016070474249086040494FF08E
:10116000000008603D494FF0010008603F484FF41F
:101170007F01D0F8002041EA020101603A484FF0B7
:10118000805101603A480068006800BF80F3088819
:1011900061B662B6704700BF20BF7047EFF30880AA
:1011A0001EF0040F01D0EFF3098020E9F00FEFF3F8
:1011B0000B8440F8044D40F804ED1EF0040F02D0FB
:1011C00080F3098801E080F3088800B551F427FA1C
:1011D0005DF804EB4EF0040E7047EFF308801EF04C
:1011E000040F01D0EFF3098020E9F00FEFF30B8437
:1011F00040F8044D40F804ED1EF0040F02D080F3D7
:10120000098801E080F3088800B551F40BFA5DF815
:1012100004EB4EF0040E704710B4EFF3038410B4E7
:101220007C4600B500B54DF804CD0FB4089C2DE9FF
:10123000F00FEFF30B8410B4684651F4AFF910BC13
:1012400084F30B88BDE8F00F0FBC5DF804CB5DF8AC
:1012500004EB10BC10BC10BC70470000A4F8402088
:1012600074F8402078F8402004ED00E020ED00E024
:1012700008ED00E002440346934200D1704703F8B2
:10128000011BF9E7715F696478203C204950435F96
:1012900048575F51554555455F4E554D0030004804
:1012A000414C5F4F4B203D3D206572720070696E6E
:1012B0000063616C6C6261636B20213D204E554C74
:1012C0004C00746C0052545F46414C5345002F55FE
:1012D000736572732F68697665746F6E2F486976CF
:1012E00065746F6E436F64652F48697665746F6EC1
:1012F000576F646C655869616F7A68692F73646BA6
:101300002F647269766572732F68616C2F62663024
:101310005F68616C5F6D61696C626F782E63002F2E
:1013200055736572732F68697665746F6E2F48699F
:101330007665746F6E436F64652F48697665746F68
:101340006E576F646C655869616F7A68692F736452
:101350006B2F647269766572732F68616C2F626699
:10136000305F68616C5F70696E6D75782E63002FF9
:1013700055736572732F68697665746F6E2F48694F
:101380007665746F6E436F64652F48697665746F18
:101390006E576F646C655869616F7A68692F736402
:1013A0006B2F647269766572732F68616C2F626649
:1013B000305F68616C5F7074632E63002F557365D6
:1013C00072732F68697665746F6E2F4869766574DD
:1013D0006F6E436F64652F48697665746F6E576FE3
:1013E000646C655869616F7A68692F73646B2F64E8
:1013F0007269766572732F68616C2F6266305F6800
:10140000616C5F7263632E63006D61696E00746965
:101410006420213D2052545F4E554C4C0074696449
:101420006C650068637075326C6370755F6E6F74A5
:10143000696669636174696F6E5F63616C6C626138
:10144000636B004442475F547269676765725F4926
:10145000525148616E646C657200706D5F70696EA8
:101460005F726573746F726500000000F9024000DE
:10147000F7024000000000000A0000000300000026
:10148000D90540000000000000000000706F727479
:101490005F636F6E66696700726F6D5F706F727405
:1014A0005F676574007074635F636F6E6669670081
:1014B00048414C5F4173736572744661696C656441
:1014C0000072745F6170706C69636174696F6E5FE4
:1014D000696E6974000070477047000008B50C48D9
:1014E00000F056F828B140F271120A490A484FF448
:1014F00035FF022209490A48FFF7D8F938B1BDE89B
:10150000084040F27512034903484FF427BF08BD55
:10151000881A40205A1440009F124000A01A402010
:101520000000084038B5164C236803F00303032B72
:10153000144B02D000221A7038BD01251D7055F4DD
:10154000E1FB114A136943F000531361636C23F00C
:1015500002036364FFF7C2FF636C23F0010363645B
:10156000FFF75BF9FFF73AF1084B1D60FEF711FE3C
:1015700051F492F8FFF76FF14FF480FBDCE700BF06
:101580000000044054FD402000F00040F81A4020C4
:1015900010B5044620B940F6B5010A48FFF790FCA3
:1015A0002268094B00201A6062685A60A2689A603B
:1015B000E268DA60226903F540439A636269DA639C
:1015C00010BD00BF1F13400000300040F8B500BF41
:1015D000F8BC08BC9E467047F8B500BFF8BC08BC14
:1015E0009E467047550F4000590F40005D0F400068
:1015F00089034000E1A60200C501400061024000ED
:10160000EDAC0500C504400055054000610F4000E9
:0416100000000000D6
:101614002CF7FF7FB0B0B08088F7FF7F0100000097
:08162400681A402010030000C9
:10162C00002008500000000009024000D9034000CF
:10163C00D7144000DDAB0500F5AB0500D914400014
:10164C00F50240008DAB050090270840C800000053
:0C165C00006CDC026D0140004501400004
:04000005004010594E
:00000001FF
